{
  "address": "0xFBf15b55CC4059cD276b92C5012EF81eBF7d03f6",
  "abi": [
    {
      "inputs": [
        {
          "internalType": "address",
          "name": "_strategyAddress",
          "type": "address"
        },
        {
          "internalType": "uint256",
          "name": "_binOffset",
          "type": "uint256"
        },
        {
          "internalType": "uint256",
          "name": "_centerOffset",
          "type": "uint256"
        }
      ],
      "stateMutability": "nonpayable",
      "type": "constructor"
    },
    {
      "anonymous": false,
      "inputs": [
        {
          "indexed": true,
          "internalType": "address",
          "name": "previousOwner",
          "type": "address"
        },
        {
          "indexed": true,
          "internalType": "address",
          "name": "newOwner",
          "type": "address"
        }
      ],
      "name": "OwnershipTransferred",
      "type": "event"
    },
    {
      "inputs": [
        {
          "internalType": "uint256[]",
          "name": "activeBins",
          "type": "uint256[]"
        }
      ],
      "name": "_checkMinMaxActiveBins",
      "outputs": [
        {
          "internalType": "uint256",
          "name": "minBin",
          "type": "uint256"
        },
        {
          "internalType": "uint256",
          "name": "maxBin",
          "type": "uint256"
        }
      ],
      "stateMutability": "pure",
      "type": "function"
    },
    {
      "inputs": [],
      "name": "binOffset",
      "outputs": [
        {
          "internalType": "uint256",
          "name": "",
          "type": "uint256"
        }
      ],
      "stateMutability": "view",
      "type": "function"
    },
    {
      "inputs": [],
      "name": "centerOffset",
      "outputs": [
        {
          "internalType": "uint256",
          "name": "",
          "type": "uint256"
        }
      ],
      "stateMutability": "view",
      "type": "function"
    },
    {
      "inputs": [
        {
          "internalType": "bytes",
          "name": "",
          "type": "bytes"
        }
      ],
      "name": "checkUpkeep",
      "outputs": [
        {
          "internalType": "bool",
          "name": "upkeepNeeded",
          "type": "bool"
        },
        {
          "internalType": "bytes",
          "name": "performData",
          "type": "bytes"
        }
      ],
      "stateMutability": "view",
      "type": "function"
    },
    {
      "inputs": [],
      "name": "gasCaller",
      "outputs": [
        {
          "internalType": "address",
          "name": "",
          "type": "address"
        }
      ],
      "stateMutability": "view",
      "type": "function"
    },
    {
      "inputs": [
        {
          "internalType": "address",
          "name": "_token",
          "type": "address"
        }
      ],
      "name": "inCaseTokensGetStuck",
      "outputs": [],
      "stateMutability": "nonpayable",
      "type": "function"
    },
    {
      "inputs": [],
      "name": "isTokenXWeighted",
      "outputs": [
        {
          "internalType": "bool",
          "name": "",
          "type": "bool"
        }
      ],
      "stateMutability": "view",
      "type": "function"
    },
    {
      "inputs": [],
      "name": "isTokenYWeighted",
      "outputs": [
        {
          "internalType": "bool",
          "name": "",
          "type": "bool"
        }
      ],
      "stateMutability": "view",
      "type": "function"
    },
    {
      "inputs": [],
      "name": "lastTimestamp",
      "outputs": [
        {
          "internalType": "uint256",
          "name": "",
          "type": "uint256"
        }
      ],
      "stateMutability": "view",
      "type": "function"
    },
    {
      "inputs": [],
      "name": "manualRebalance",
      "outputs": [],
      "stateMutability": "nonpayable",
      "type": "function"
    },
    {
      "inputs": [],
      "name": "owner",
      "outputs": [
        {
          "internalType": "address",
          "name": "",
          "type": "address"
        }
      ],
      "stateMutability": "view",
      "type": "function"
    },
    {
      "inputs": [
        {
          "internalType": "bytes",
          "name": "",
          "type": "bytes"
        }
      ],
      "name": "performUpkeep",
      "outputs": [],
      "stateMutability": "nonpayable",
      "type": "function"
    },
    {
      "inputs": [],
      "name": "period",
      "outputs": [
        {
          "internalType": "uint256",
          "name": "",
          "type": "uint256"
        }
      ],
      "stateMutability": "view",
      "type": "function"
    },
    {
      "inputs": [],
      "name": "renounceOwnership",
      "outputs": [],
      "stateMutability": "nonpayable",
      "type": "function"
    },
    {
      "inputs": [
        {
          "internalType": "uint256",
          "name": "_binOffset",
          "type": "uint256"
        }
      ],
      "name": "setBinOffset",
      "outputs": [],
      "stateMutability": "nonpayable",
      "type": "function"
    },
    {
      "inputs": [
        {
          "internalType": "uint256",
          "name": "_centerOffset",
          "type": "uint256"
        }
      ],
      "name": "setCenterOffset",
      "outputs": [],
      "stateMutability": "nonpayable",
      "type": "function"
    },
    {
      "inputs": [
        {
          "internalType": "uint256",
          "name": "_period",
          "type": "uint256"
        }
      ],
      "name": "setPeriod",
      "outputs": [],
      "stateMutability": "nonpayable",
      "type": "function"
    },
    {
      "inputs": [],
      "name": "strategyAddress",
      "outputs": [
        {
          "internalType": "address",
          "name": "",
          "type": "address"
        }
      ],
      "stateMutability": "view",
      "type": "function"
    },
    {
      "inputs": [
        {
          "internalType": "address",
          "name": "newOwner",
          "type": "address"
        }
      ],
      "name": "transferOwnership",
      "outputs": [],
      "stateMutability": "nonpayable",
      "type": "function"
    }
  ],
  "transactionHash": "0xeb522f7f0ddab151b9efc3fc0da7affc5564dfcc1c2cf15fecc03b7560b3699f",
  "args": [
    "0xd44317158Ce7DfFFB87E59442777b88eBA901888",
    1,
    5
  ],
  "numDeployments": 1,
  "solcInputHash": "b51c85b2a0d89b6c122af7f8ed7f2234",
  "bytecode": "0x60a06040526201518060055534801561001757600080fd5b5060405161161e38038061161e833981016040819052610036916100a8565b61003f33610058565b6001600160a01b039092166080526001556003556100eb565b600080546001600160a01b038381166001600160a01b0319831681178455604051919092169283917f8be0079c531659141344cd1fd0a4f28419497f9722a3daafe3b4186f6b6457e09190a35050565b6000806000606084860312156100bd57600080fd5b83516001600160a01b03811681146100d457600080fd5b602085015160409095015190969495509392505050565b6080516114e061013e600039600081816102760152818161035301528181610441015281816105b301528181610694015281816107bc015281816108be01528181610a7f0152610c8d01526114e06000f3fe608060405234801561001057600080fd5b50600436106101515760003560e01c8063715018a6116100cd578063c305d37611610081578063e45fec3111610066578063e45fec31146102c7578063ef78d4fd146102d0578063f2fde38b146102d957600080fd5b8063c305d376146102ab578063def68a9c146102b457600080fd5b80639f85adf1116100b25780639f85adf114610269578063bc6b74ab14610271578063be966e721461029857600080fd5b8063715018a6146102505780638da5cb5b1461025857600080fd5b80636964410e116101245780636c6be11e116101095780636c6be11e146101dc5780636d239733146102075780636e04ff0d1461022f57600080fd5b80636964410e146101bc5780636b2686d5146101cf57600080fd5b80630f3a9f651461015657806319d8ac611461016b5780632829c739146101875780634585e33b146101a9575b600080fd5b610169610164366004611093565b6102ec565b005b61017460045481565b6040519081526020015b60405180910390f35b60025461019990610100900460ff1681565b604051901515815260200161017e565b6101696101b73660046110ac565b61034f565b6101696101ca366004611093565b6106f2565b6002546101999060ff1681565b6006546101ef906001600160a01b031681565b6040516001600160a01b03909116815260200161017e565b61021a610215366004611189565b6106ff565b6040805192835260208301919091520161017e565b61024261023d3660046110ac565b6107b0565b60405161017e929190611264565b610169610a3e565b6000546001600160a01b03166101ef565b610169610a52565b6101ef7f000000000000000000000000000000000000000000000000000000000000000081565b6101696102a6366004611093565b610af0565b61017460015481565b6101696102c2366004611294565b610afd565b61017460035481565b61017460055481565b6101696102e7366004611294565b610b9f565b6102f4610c2f565b610e10811161034a5760405162461bcd60e51b815260206004820152601960248201527f4d616e616765723a20506572696f6420746f6f20736d616c6c0000000000000060448201526064015b60405180910390fd5b600555565b60007f00000000000000000000000000000000000000000000000000000000000000006001600160a01b031663625af7676040518163ffffffff1660e01b8152600401602060405180830381865afa1580156103af573d6000803e3d6000fd5b505050506040513d601f19601f820116820180604052508101906103d391906112b8565b90506000816001600160a01b0316631b05b83e6040518163ffffffff1660e01b8152600401606060405180830381865afa158015610415573d6000803e3d6000fd5b505050506040513d601f19601f8201168201806040525081019061043991906112d5565b9250505060007f00000000000000000000000000000000000000000000000000000000000000006001600160a01b031663d69d1dac6040518163ffffffff1660e01b8152600401600060405180830381865afa15801561049d573d6000803e3d6000fd5b505050506040513d6000823e601f3d908101601f191682016040526104c59190810190611303565b90506000806104d3836106ff565b8451919350915060006104e760028361139f565b9050600085600354836104fa91906113c1565b8151811061050a5761050a6113da565b602002602001015190506000866003548461052591906113f0565b81518110610535576105356113da565b602002602001015190506001548661054d91906113f0565b88111580610567575060015461056390866113c1565b8810155b1561063b5760015461057990876113f0565b881161058e576002805461ffff191660011790555b60015461059b90866113c1565b88106105b1576002805461ffff19166101001790555b7f00000000000000000000000000000000000000000000000000000000000000006001600160a01b0316639bb71aef6040518163ffffffff1660e01b815260040160408051808303816000875af1158015610610573d6000803e3d6000fd5b505050506040513d601f19601f820116820180604052508101906106349190611403565b50506106e5565b8188111580156106525750600254610100900460ff165b8061066a575080881015801561066a575060025460ff165b156106dd576002805461ffff1916905560408051639bb71aef60e01b815281516001600160a01b037f00000000000000000000000000000000000000000000000000000000000000001692639bb71aef926004808201939182900301816000875af1158015610610573d6000803e3d6000fd5b6106e5610c89565b5050505050505050505050565b6106fa610c2f565b600155565b6000806001815b84518110156107a95783858281518110610722576107226113da565b602002602001015110806107335750815b156107595784818151811061074a5761074a6113da565b60200260200101519350600091505b8285828151811061076c5761076c6113da565b602002602001015111156107975784818151811061078c5761078c6113da565b602002602001015192505b806107a181611427565b915050610706565b5050915091565b600060606000915060007f00000000000000000000000000000000000000000000000000000000000000006001600160a01b031663d69d1dac6040518163ffffffff1660e01b8152600401600060405180830381865afa158015610818573d6000803e3d6000fd5b505050506040513d6000823e601f3d908101601f191682016040526108409190810190611303565b905060008061084e836106ff565b84519193509150600061086260028361139f565b90506000856003548361087591906113c1565b81518110610885576108856113da565b60200260200101519050600086600354846108a091906113f0565b815181106108b0576108b06113da565b6020026020010151905060007f00000000000000000000000000000000000000000000000000000000000000006001600160a01b031663625af7676040518163ffffffff1660e01b8152600401602060405180830381865afa15801561091a573d6000803e3d6000fd5b505050506040513d601f19601f8201168201806040525081019061093e91906112b8565b90506000816001600160a01b0316631b05b83e6040518163ffffffff1660e01b8152600401606060405180830381865afa158015610980573d6000803e3d6000fd5b505050506040513d601f19601f820116820180604052508101906109a491906112d5565b92505050600154886109b691906113f0565b81116109c15760019a505b6001546109ce90886113c1565b81106109d95760019a505b8381111580156109f05750600254610100900460ff165b80610a085750828110158015610a08575060025460ff165b15610a125760019a505b600554600454610a2291906113f0565b421115610a2e5760019a505b5050505050505050509250929050565b610a46610c2f565b610a506000610d1a565b565b610a5a610c2f565b6002805461ffff1916905560408051639bb71aef60e01b815281516001600160a01b037f00000000000000000000000000000000000000000000000000000000000000001692639bb71aef926004808201939182900301816000875af1158015610ac8573d6000803e3d6000fd5b505050506040513d601f19601f82011682018060405250810190610aec9190611403565b5050565b610af8610c2f565b600355565b610b05610c2f565b6040517f70a082310000000000000000000000000000000000000000000000000000000081523060048201526000906001600160a01b038316906370a0823190602401602060405180830381865afa158015610b65573d6000803e3d6000fd5b505050506040513d601f19601f82011682018060405250810190610b899190611440565b9050610aec6001600160a01b0383163383610d82565b610ba7610c2f565b6001600160a01b038116610c235760405162461bcd60e51b815260206004820152602660248201527f4f776e61626c653a206e6577206f776e657220697320746865207a65726f206160448201527f64647265737300000000000000000000000000000000000000000000000000006064820152608401610341565b610c2c81610d1a565b50565b6000546001600160a01b03163314610a505760405162461bcd60e51b815260206004820181905260248201527f4f776e61626c653a2063616c6c6572206973206e6f7420746865206f776e65726044820152606401610341565b60007f00000000000000000000000000000000000000000000000000000000000000009050806001600160a01b0316634641257d6040518163ffffffff1660e01b815260040160408051808303816000875af1158015610ced573d6000803e3d6000fd5b505050506040513d601f19601f82011682018060405250810190610d119190611403565b50504260045550565b600080546001600160a01b038381167fffffffffffffffffffffffff0000000000000000000000000000000000000000831681178455604051919092169283917f8be0079c531659141344cd1fd0a4f28419497f9722a3daafe3b4186f6b6457e09190a35050565b604080516001600160a01b038416602482015260448082018490528251808303909101815260649091019091526020810180517bffffffffffffffffffffffffffffffffffffffffffffffffffffffff167fa9059cbb00000000000000000000000000000000000000000000000000000000179052610e02908490610e07565b505050565b6000610e5c826040518060400160405280602081526020017f5361666545524332303a206c6f772d6c6576656c2063616c6c206661696c6564815250856001600160a01b0316610eec9092919063ffffffff16565b805190915015610e025780806020019051810190610e7a9190611459565b610e025760405162461bcd60e51b815260206004820152602a60248201527f5361666545524332303a204552433230206f7065726174696f6e20646964206e60448201527f6f742073756363656564000000000000000000000000000000000000000000006064820152608401610341565b6060610efb8484600085610f03565b949350505050565b606082471015610f7b5760405162461bcd60e51b815260206004820152602660248201527f416464726573733a20696e73756666696369656e742062616c616e636520666f60448201527f722063616c6c00000000000000000000000000000000000000000000000000006064820152608401610341565b600080866001600160a01b03168587604051610f97919061147b565b60006040518083038185875af1925050503d8060008114610fd4576040519150601f19603f3d011682016040523d82523d6000602084013e610fd9565b606091505b5091509150610fea87838387610ff5565b979650505050505050565b6060831561106457825160000361105d576001600160a01b0385163b61105d5760405162461bcd60e51b815260206004820152601d60248201527f416464726573733a2063616c6c20746f206e6f6e2d636f6e74726163740000006044820152606401610341565b5081610efb565b610efb83838151156110795781518083602001fd5b8060405162461bcd60e51b81526004016103419190611497565b6000602082840312156110a557600080fd5b5035919050565b600080602083850312156110bf57600080fd5b823567ffffffffffffffff808211156110d757600080fd5b818501915085601f8301126110eb57600080fd5b8135818111156110fa57600080fd5b86602082850101111561110c57600080fd5b60209290920196919550909350505050565b634e487b7160e01b600052604160045260246000fd5b604051601f8201601f1916810167ffffffffffffffff8111828210171561115d5761115d61111e565b604052919050565b600067ffffffffffffffff82111561117f5761117f61111e565b5060051b60200190565b6000602080838503121561119c57600080fd5b823567ffffffffffffffff8111156111b357600080fd5b8301601f810185136111c457600080fd5b80356111d76111d282611165565b611134565b81815260059190911b820183019083810190878311156111f657600080fd5b928401925b82841015610fea578335825292840192908401906111fb565b60005b8381101561122f578181015183820152602001611217565b50506000910152565b60008151808452611250816020860160208601611214565b601f01601f19169290920160200192915050565b8215158152604060208201526000610efb6040830184611238565b6001600160a01b0381168114610c2c57600080fd5b6000602082840312156112a657600080fd5b81356112b18161127f565b9392505050565b6000602082840312156112ca57600080fd5b81516112b18161127f565b6000806000606084860312156112ea57600080fd5b8351925060208401519150604084015190509250925092565b6000602080838503121561131657600080fd5b825167ffffffffffffffff81111561132d57600080fd5b8301601f8101851361133e57600080fd5b805161134c6111d282611165565b81815260059190911b8201830190838101908783111561136b57600080fd5b928401925b82841015610fea57835182529284019290840190611370565b634e487b7160e01b600052601160045260246000fd5b6000826113bc57634e487b7160e01b600052601260045260246000fd5b500490565b818103818111156113d4576113d4611389565b92915050565b634e487b7160e01b600052603260045260246000fd5b808201808211156113d4576113d4611389565b6000806040838503121561141657600080fd5b505080516020909101519092909150565b60006001820161143957611439611389565b5060010190565b60006020828403121561145257600080fd5b5051919050565b60006020828403121561146b57600080fd5b815180151581146112b157600080fd5b6000825161148d818460208701611214565b9190910192915050565b6020815260006112b1602083018461123856fea2646970667358221220df733740973a6c363f725280f8c7be7f925a7abf4582aa64a2f62a705aba4cd664736f6c63430008110033",
  "devdoc": {
    "author": "SteakHut Finance",
    "kind": "dev",
    "methods": {
      "inCaseTokensGetStuck(address)": {
        "params": {
          "_token": "address of the token to rescue."
        }
      },
      "owner()": {
        "details": "Returns the address of the current owner."
      },
      "renounceOwnership()": {
        "details": "Leaves the contract without owner. It will not be possible to call `onlyOwner` functions anymore. Can only be called by the current owner. NOTE: Renouncing ownership will leave the contract without an owner, thereby removing any functionality that is only available to the owner."
      },
      "setBinOffset(uint256)": {
        "params": {
          "_binOffset": "new bin offset."
        }
      },
      "setCenterOffset(uint256)": {
        "params": {
          "_centerOffset": "new center offset."
        }
      },
      "setPeriod(uint256)": {
        "params": {
          "_period": "new minimum period."
        }
      },
      "transferOwnership(address)": {
        "details": "Transfers ownership of the contract to a new account (`newOwner`). Can only be called by the current owner."
      }
    },
    "title": "LBActiveStratManager V2",
    "version": 1
  },
  "userdoc": {
    "kind": "user",
    "methods": {
      "_checkMinMaxActiveBins(uint256[])": {
        "notice": "returns the minimum and maximum bin currently used by the underlying strategy"
      },
      "checkUpkeep(bytes)": {
        "notice": "Chainlink Check Upkeep Functionchecks to moves liquidity around the active bin once binOffset is achievedchecks if enough time has passed to perform a harvest only"
      },
      "constructor": {
        "notice": "----------------------------------------------------------- Constructor -----------------------------------------------------------"
      },
      "inCaseTokensGetStuck(address)": {
        "notice": "Rescues funds stuck"
      },
      "manualRebalance()": {
        "notice": "manual rebalance underlying position"
      },
      "performUpkeep(bytes)": {
        "notice": "Chainlink Perform Upkeep Functionmoves liquidity around the active bin once binOffset is achievedharvest if enough time has passed to perform a harvest only"
      },
      "setBinOffset(uint256)": {
        "notice": "Updates binOffset"
      },
      "setCenterOffset(uint256)": {
        "notice": "Updates centerOffset"
      },
      "setPeriod(uint256)": {
        "notice": "Updates the minimum period between harvests"
      }
    },
    "notice": "contract to enable rebalances of the underlying strategy using existing parametersthis strategy will chase an active bin once it goes within x number bins of current rangethis strategy will also perform a rebalance once it becomes one sided",
    "version": 1
  },
  "storageLayout": {
    "storage": [
      {
        "astId": 65,
        "contract": "contracts/automator/LBActiveManagerV2.sol:LBActiveStratManagerActiveV2",
        "label": "_owner",
        "offset": 0,
        "slot": "0",
        "type": "t_address"
      },
      {
        "astId": 7689,
        "contract": "contracts/automator/LBActiveManagerV2.sol:LBActiveStratManagerActiveV2",
        "label": "binOffset",
        "offset": 0,
        "slot": "1",
        "type": "t_uint256"
      },
      {
        "astId": 7691,
        "contract": "contracts/automator/LBActiveManagerV2.sol:LBActiveStratManagerActiveV2",
        "label": "isTokenXWeighted",
        "offset": 0,
        "slot": "2",
        "type": "t_bool"
      },
      {
        "astId": 7693,
        "contract": "contracts/automator/LBActiveManagerV2.sol:LBActiveStratManagerActiveV2",
        "label": "isTokenYWeighted",
        "offset": 1,
        "slot": "2",
        "type": "t_bool"
      },
      {
        "astId": 7695,
        "contract": "contracts/automator/LBActiveManagerV2.sol:LBActiveStratManagerActiveV2",
        "label": "centerOffset",
        "offset": 0,
        "slot": "3",
        "type": "t_uint256"
      },
      {
        "astId": 7697,
        "contract": "contracts/automator/LBActiveManagerV2.sol:LBActiveStratManagerActiveV2",
        "label": "lastTimestamp",
        "offset": 0,
        "slot": "4",
        "type": "t_uint256"
      },
      {
        "astId": 7700,
        "contract": "contracts/automator/LBActiveManagerV2.sol:LBActiveStratManagerActiveV2",
        "label": "period",
        "offset": 0,
        "slot": "5",
        "type": "t_uint256"
      },
      {
        "astId": 7702,
        "contract": "contracts/automator/LBActiveManagerV2.sol:LBActiveStratManagerActiveV2",
        "label": "gasCaller",
        "offset": 0,
        "slot": "6",
        "type": "t_address"
      }
    ],
    "types": {
      "t_address": {
        "encoding": "inplace",
        "label": "address",
        "numberOfBytes": "20"
      },
      "t_bool": {
        "encoding": "inplace",
        "label": "bool",
        "numberOfBytes": "1"
      },
      "t_uint256": {
        "encoding": "inplace",
        "label": "uint256",
        "numberOfBytes": "32"
      }
    }
  }
}