{
  "address": "0x717955905bf71b84651f4eD75AAC4C6A4b33b410",
  "abi": [
    {
      "inputs": [
        {
          "internalType": "string",
          "name": "_name",
          "type": "string"
        },
        {
          "internalType": "string",
          "name": "_symbol",
          "type": "string"
        }
      ],
      "stateMutability": "nonpayable",
      "type": "constructor"
    },
    {
      "inputs": [
        {
          "internalType": "uint256",
          "name": "prod1",
          "type": "uint256"
        },
        {
          "internalType": "uint256",
          "name": "denominator",
          "type": "uint256"
        }
      ],
      "name": "Math512Bits__MulDivOverflow",
      "type": "error"
    },
    {
      "inputs": [
        {
          "internalType": "uint256",
          "name": "x",
          "type": "uint256"
        }
      ],
      "name": "SafeCast__Exceeds24Bits",
      "type": "error"
    },
    {
      "anonymous": false,
      "inputs": [
        {
          "indexed": true,
          "internalType": "address",
          "name": "owner",
          "type": "address"
        },
        {
          "indexed": true,
          "internalType": "address",
          "name": "spender",
          "type": "address"
        },
        {
          "indexed": false,
          "internalType": "uint256",
          "name": "value",
          "type": "uint256"
        }
      ],
      "name": "Approval",
      "type": "event"
    },
    {
      "anonymous": false,
      "inputs": [
        {
          "indexed": false,
          "internalType": "address",
          "name": "user",
          "type": "address"
        },
        {
          "indexed": false,
          "internalType": "uint256",
          "name": "amountX",
          "type": "uint256"
        },
        {
          "indexed": false,
          "internalType": "uint256",
          "name": "amountY",
          "type": "uint256"
        },
        {
          "indexed": false,
          "internalType": "uint256",
          "name": "shares",
          "type": "uint256"
        }
      ],
      "name": "Deposit",
      "type": "event"
    },
    {
      "anonymous": false,
      "inputs": [
        {
          "indexed": true,
          "internalType": "address",
          "name": "previousOwner",
          "type": "address"
        },
        {
          "indexed": true,
          "internalType": "address",
          "name": "newOwner",
          "type": "address"
        }
      ],
      "name": "OwnershipTransferred",
      "type": "event"
    },
    {
      "anonymous": false,
      "inputs": [
        {
          "indexed": true,
          "internalType": "address",
          "name": "from",
          "type": "address"
        },
        {
          "indexed": true,
          "internalType": "address",
          "name": "to",
          "type": "address"
        },
        {
          "indexed": false,
          "internalType": "uint256",
          "name": "value",
          "type": "uint256"
        }
      ],
      "name": "Transfer",
      "type": "event"
    },
    {
      "anonymous": false,
      "inputs": [
        {
          "indexed": false,
          "internalType": "address",
          "name": "implementation",
          "type": "address"
        }
      ],
      "name": "UpgradeStrat",
      "type": "event"
    },
    {
      "anonymous": false,
      "inputs": [
        {
          "indexed": false,
          "internalType": "address",
          "name": "user",
          "type": "address"
        },
        {
          "indexed": false,
          "internalType": "uint256",
          "name": "amountX",
          "type": "uint256"
        },
        {
          "indexed": false,
          "internalType": "uint256",
          "name": "amountY",
          "type": "uint256"
        },
        {
          "indexed": false,
          "internalType": "uint256",
          "name": "shares",
          "type": "uint256"
        }
      ],
      "name": "Withdraw",
      "type": "event"
    },
    {
      "inputs": [
        {
          "internalType": "address",
          "name": "owner",
          "type": "address"
        },
        {
          "internalType": "address",
          "name": "spender",
          "type": "address"
        }
      ],
      "name": "allowance",
      "outputs": [
        {
          "internalType": "uint256",
          "name": "",
          "type": "uint256"
        }
      ],
      "stateMutability": "view",
      "type": "function"
    },
    {
      "inputs": [
        {
          "internalType": "address",
          "name": "spender",
          "type": "address"
        },
        {
          "internalType": "uint256",
          "name": "amount",
          "type": "uint256"
        }
      ],
      "name": "approve",
      "outputs": [
        {
          "internalType": "bool",
          "name": "",
          "type": "bool"
        }
      ],
      "stateMutability": "nonpayable",
      "type": "function"
    },
    {
      "inputs": [
        {
          "internalType": "address",
          "name": "account",
          "type": "address"
        }
      ],
      "name": "balanceOf",
      "outputs": [
        {
          "internalType": "uint256",
          "name": "",
          "type": "uint256"
        }
      ],
      "stateMutability": "view",
      "type": "function"
    },
    {
      "inputs": [
        {
          "internalType": "uint256",
          "name": "amountXDesired",
          "type": "uint256"
        },
        {
          "internalType": "uint256",
          "name": "amountYDesired",
          "type": "uint256"
        }
      ],
      "name": "calcSharesAndAmounts",
      "outputs": [
        {
          "internalType": "uint256",
          "name": "shares",
          "type": "uint256"
        },
        {
          "internalType": "uint256",
          "name": "amountX",
          "type": "uint256"
        },
        {
          "internalType": "uint256",
          "name": "amountY",
          "type": "uint256"
        }
      ],
      "stateMutability": "view",
      "type": "function"
    },
    {
      "inputs": [],
      "name": "decimals",
      "outputs": [
        {
          "internalType": "uint8",
          "name": "",
          "type": "uint8"
        }
      ],
      "stateMutability": "view",
      "type": "function"
    },
    {
      "inputs": [
        {
          "internalType": "address",
          "name": "spender",
          "type": "address"
        },
        {
          "internalType": "uint256",
          "name": "subtractedValue",
          "type": "uint256"
        }
      ],
      "name": "decreaseAllowance",
      "outputs": [
        {
          "internalType": "bool",
          "name": "",
          "type": "bool"
        }
      ],
      "stateMutability": "nonpayable",
      "type": "function"
    },
    {
      "inputs": [
        {
          "internalType": "uint256",
          "name": "amountX",
          "type": "uint256"
        },
        {
          "internalType": "uint256",
          "name": "amountY",
          "type": "uint256"
        },
        {
          "internalType": "uint256",
          "name": "amountXMin",
          "type": "uint256"
        },
        {
          "internalType": "uint256",
          "name": "amountYMin",
          "type": "uint256"
        }
      ],
      "name": "deposit",
      "outputs": [
        {
          "internalType": "uint256",
          "name": "shares",
          "type": "uint256"
        },
        {
          "internalType": "uint256",
          "name": "amountXActual",
          "type": "uint256"
        },
        {
          "internalType": "uint256",
          "name": "amountYActual",
          "type": "uint256"
        }
      ],
      "stateMutability": "nonpayable",
      "type": "function"
    },
    {
      "inputs": [
        {
          "internalType": "uint256",
          "name": "amountX",
          "type": "uint256"
        },
        {
          "internalType": "uint256",
          "name": "amountY",
          "type": "uint256"
        },
        {
          "internalType": "uint256",
          "name": "amountXMin",
          "type": "uint256"
        },
        {
          "internalType": "uint256",
          "name": "amountYMin",
          "type": "uint256"
        }
      ],
      "name": "depositAVAXPair",
      "outputs": [
        {
          "internalType": "uint256",
          "name": "shares",
          "type": "uint256"
        },
        {
          "internalType": "uint256",
          "name": "amountXActual",
          "type": "uint256"
        },
        {
          "internalType": "uint256",
          "name": "amountYActual",
          "type": "uint256"
        }
      ],
      "stateMutability": "payable",
      "type": "function"
    },
    {
      "inputs": [
        {
          "internalType": "uint256",
          "name": "_shares",
          "type": "uint256"
        }
      ],
      "name": "getUnderlyingAssets",
      "outputs": [
        {
          "internalType": "uint256",
          "name": "totalX",
          "type": "uint256"
        },
        {
          "internalType": "uint256",
          "name": "totalY",
          "type": "uint256"
        }
      ],
      "stateMutability": "view",
      "type": "function"
    },
    {
      "inputs": [
        {
          "internalType": "address",
          "name": "_lbToken",
          "type": "address"
        },
        {
          "internalType": "uint256",
          "name": "_id",
          "type": "uint256"
        }
      ],
      "name": "inCaseLBTokensGetStuck",
      "outputs": [],
      "stateMutability": "nonpayable",
      "type": "function"
    },
    {
      "inputs": [
        {
          "internalType": "address",
          "name": "_token",
          "type": "address"
        }
      ],
      "name": "inCaseTokensGetStuck",
      "outputs": [],
      "stateMutability": "nonpayable",
      "type": "function"
    },
    {
      "inputs": [
        {
          "internalType": "address",
          "name": "spender",
          "type": "address"
        },
        {
          "internalType": "uint256",
          "name": "addedValue",
          "type": "uint256"
        }
      ],
      "name": "increaseAllowance",
      "outputs": [
        {
          "internalType": "bool",
          "name": "",
          "type": "bool"
        }
      ],
      "stateMutability": "nonpayable",
      "type": "function"
    },
    {
      "inputs": [],
      "name": "name",
      "outputs": [
        {
          "internalType": "string",
          "name": "",
          "type": "string"
        }
      ],
      "stateMutability": "view",
      "type": "function"
    },
    {
      "inputs": [],
      "name": "owner",
      "outputs": [
        {
          "internalType": "address",
          "name": "",
          "type": "address"
        }
      ],
      "stateMutability": "view",
      "type": "function"
    },
    {
      "inputs": [],
      "name": "renounceOwnership",
      "outputs": [],
      "stateMutability": "nonpayable",
      "type": "function"
    },
    {
      "inputs": [
        {
          "internalType": "address",
          "name": "_strategy",
          "type": "address"
        }
      ],
      "name": "setStrategyAddress",
      "outputs": [],
      "stateMutability": "nonpayable",
      "type": "function"
    },
    {
      "inputs": [],
      "name": "strategy",
      "outputs": [
        {
          "internalType": "contract ILBStrategy",
          "name": "",
          "type": "address"
        }
      ],
      "stateMutability": "view",
      "type": "function"
    },
    {
      "inputs": [],
      "name": "symbol",
      "outputs": [
        {
          "internalType": "string",
          "name": "",
          "type": "string"
        }
      ],
      "stateMutability": "view",
      "type": "function"
    },
    {
      "inputs": [],
      "name": "totalSupply",
      "outputs": [
        {
          "internalType": "uint256",
          "name": "",
          "type": "uint256"
        }
      ],
      "stateMutability": "view",
      "type": "function"
    },
    {
      "inputs": [
        {
          "internalType": "address",
          "name": "to",
          "type": "address"
        },
        {
          "internalType": "uint256",
          "name": "amount",
          "type": "uint256"
        }
      ],
      "name": "transfer",
      "outputs": [
        {
          "internalType": "bool",
          "name": "",
          "type": "bool"
        }
      ],
      "stateMutability": "nonpayable",
      "type": "function"
    },
    {
      "inputs": [
        {
          "internalType": "address",
          "name": "from",
          "type": "address"
        },
        {
          "internalType": "address",
          "name": "to",
          "type": "address"
        },
        {
          "internalType": "uint256",
          "name": "amount",
          "type": "uint256"
        }
      ],
      "name": "transferFrom",
      "outputs": [
        {
          "internalType": "bool",
          "name": "",
          "type": "bool"
        }
      ],
      "stateMutability": "nonpayable",
      "type": "function"
    },
    {
      "inputs": [
        {
          "internalType": "address",
          "name": "newOwner",
          "type": "address"
        }
      ],
      "name": "transferOwnership",
      "outputs": [],
      "stateMutability": "nonpayable",
      "type": "function"
    },
    {
      "inputs": [],
      "name": "want",
      "outputs": [
        {
          "internalType": "contract IERC20",
          "name": "",
          "type": "address"
        },
        {
          "internalType": "contract IERC20",
          "name": "",
          "type": "address"
        }
      ],
      "stateMutability": "view",
      "type": "function"
    },
    {
      "inputs": [],
      "name": "wavax",
      "outputs": [
        {
          "internalType": "contract IWrappedNative",
          "name": "",
          "type": "address"
        }
      ],
      "stateMutability": "view",
      "type": "function"
    },
    {
      "inputs": [
        {
          "internalType": "uint256",
          "name": "_shares",
          "type": "uint256"
        }
      ],
      "name": "withdraw",
      "outputs": [
        {
          "internalType": "uint256",
          "name": "amountX",
          "type": "uint256"
        },
        {
          "internalType": "uint256",
          "name": "amountY",
          "type": "uint256"
        }
      ],
      "stateMutability": "nonpayable",
      "type": "function"
    },
    {
      "inputs": [
        {
          "internalType": "uint256",
          "name": "_shares",
          "type": "uint256"
        }
      ],
      "name": "withdrawAVAXPair",
      "outputs": [
        {
          "internalType": "uint256",
          "name": "amountX",
          "type": "uint256"
        },
        {
          "internalType": "uint256",
          "name": "amountY",
          "type": "uint256"
        }
      ],
      "stateMutability": "nonpayable",
      "type": "function"
    },
    {
      "inputs": [],
      "name": "withdrawAll",
      "outputs": [],
      "stateMutability": "nonpayable",
      "type": "function"
    },
    {
      "stateMutability": "payable",
      "type": "receive"
    }
  ],
  "transactionHash": "0x94c71609cfaf2ec9c2ff935242624780f443bdae360d842b540991c36f69572a",
  "args": [
    "Personal LB Vault",
    "Personal LB Vault"
  ],
  "numDeployments": 1,
  "solcInputHash": "b51c85b2a0d89b6c122af7f8ed7f2234",
  "bytecode": "0x60a060405273b31f66aa3c1e785363f0875a1b74e27b85fd66c76080523480156200002957600080fd5b50604051620038e6380380620038e68339810160408190526200004c91620001b0565b818160036200005c8382620002a9565b5060046200006b8282620002a9565b50505062000088620000826200009560201b60201c565b62000099565b5050600160065562000375565b3390565b600580546001600160a01b038381166001600160a01b0319831681179093556040519116919082907f8be0079c531659141344cd1fd0a4f28419497f9722a3daafe3b4186f6b6457e090600090a35050565b634e487b7160e01b600052604160045260246000fd5b600082601f8301126200011357600080fd5b81516001600160401b0380821115620001305762000130620000eb565b604051601f8301601f19908116603f011681019082821181831017156200015b576200015b620000eb565b816040528381526020925086838588010111156200017857600080fd5b600091505b838210156200019c57858201830151818301840152908201906200017d565b600093810190920192909252949350505050565b60008060408385031215620001c457600080fd5b82516001600160401b0380821115620001dc57600080fd5b620001ea8683870162000101565b935060208501519150808211156200020157600080fd5b50620002108582860162000101565b9150509250929050565b600181811c908216806200022f57607f821691505b6020821081036200025057634e487b7160e01b600052602260045260246000fd5b50919050565b601f821115620002a457600081815260208120601f850160051c810160208610156200027f5750805b601f850160051c820191505b81811015620002a0578281556001016200028b565b5050505b505050565b81516001600160401b03811115620002c557620002c5620000eb565b620002dd81620002d684546200021a565b8462000256565b602080601f831160018114620003155760008415620002fc5750858301515b600019600386901b1c1916600185901b178555620002a0565b600085815260208120601f198616915b82811015620003465788860151825594840194600190910190840162000325565b5085821015620003655787850151600019600388901b60f8161c191681555b5050505050600190811b01905550565b608051613516620003d0600039600081816101c0015281816102cc015281816110fe0152818161121701528181611c9c01528181611d8401528181611e6c01528181611f5401528181612ac40152612b4201526135166000f3fe6080604052600436106101b05760003560e01c806370a08231116100ec578063a8c62e761161008a578063cc177e9811610064578063cc177e98146105ac578063dd62ed3e146105cc578063def68a9c14610612578063f2fde38b1461063257600080fd5b8063a8c62e761461054c578063a9059cbb1461056c578063cbe361961461058c57600080fd5b8063853828b6116100c6578063853828b6146104e45780638da5cb5b146104f957806395d89b4114610517578063a457c2d71461052c57600080fd5b806370a0823114610479578063715018a6146104af5780638405f1d4146104c457600080fd5b806324cfba9f11610159578063313ce56711610133578063313ce5671461040a578063395093511461042657806340ff395b1461044657806358a3b1b61461045957600080fd5b806324cfba9f1461037a5780632505c3d91461039a5780632e1a7d4d146103d557600080fd5b806318160ddd1161018a57806318160ddd146103065780631f1fcd511461032557806323b872dd1461035a57600080fd5b806306fdde031461025f578063095ea7b31461028a578063117be4c2146102ba57600080fd5b3661025a57336001600160a01b037f000000000000000000000000000000000000000000000000000000000000000016146102585760405162461bcd60e51b815260206004820152602660248201527f5661756c744e61746976653a2053656e646572206e6f7420574156415820636f60448201527f6e7472616374000000000000000000000000000000000000000000000000000060648201526084015b60405180910390fd5b005b600080fd5b34801561026b57600080fd5b50610274610652565b60405161028191906130f2565b60405180910390f35b34801561029657600080fd5b506102aa6102a536600461313a565b6106e4565b6040519015158152602001610281565b3480156102c657600080fd5b506102ee7f000000000000000000000000000000000000000000000000000000000000000081565b6040516001600160a01b039091168152602001610281565b34801561031257600080fd5b506002545b604051908152602001610281565b34801561033157600080fd5b5061033a6106fe565b604080516001600160a01b03938416815292909116602083015201610281565b34801561036657600080fd5b506102aa610375366004613166565b6107f7565b34801561038657600080fd5b506102586103953660046131a7565b61081b565b3480156103a657600080fd5b506103ba6103b53660046131c4565b6108dd565b60408051938452602084019290925290820152606001610281565b3480156103e157600080fd5b506103f56103f03660046131f6565b610c23565b60408051928352602083019190915201610281565b34801561041657600080fd5b5060405160128152602001610281565b34801561043257600080fd5b506102aa61044136600461313a565b6110b8565b6103ba6104543660046131c4565b6110f7565b34801561046557600080fd5b5061025861047436600461313a565b61130c565b34801561048557600080fd5b506103176104943660046131a7565b6001600160a01b031660009081526020819052604090205490565b3480156104bb57600080fd5b50610258611412565b3480156104d057600080fd5b506103ba6104df36600461320f565b611426565b3480156104f057600080fd5b506102586116f2565b34801561050557600080fd5b506005546001600160a01b03166102ee565b34801561052357600080fd5b5061027461170f565b34801561053857600080fd5b506102aa61054736600461313a565b61171e565b34801561055857600080fd5b506007546102ee906001600160a01b031681565b34801561057857600080fd5b506102aa61058736600461313a565b6117c8565b34801561059857600080fd5b506103f56105a73660046131f6565b6117d6565b3480156105b857600080fd5b506103f56105c73660046131f6565b611996565b3480156105d857600080fd5b506103176105e7366004613231565b6001600160a01b03918216600090815260016020908152604080832093909416825291909152205490565b34801561061e57600080fd5b5061025861062d3660046131a7565b612019565b34801561063e57600080fd5b5061025861064d3660046131a7565b6120bb565b6060600380546106619061326a565b80601f016020809104026020016040519081016040528092919081815260200182805461068d9061326a565b80156106da5780601f106106af576101008083540402835291602001916106da565b820191906000526020600020905b8154815290600101906020018083116106bd57829003601f168201915b5050505050905090565b6000336106f281858561214b565b60019150505b92915050565b600080600760009054906101000a90046001600160a01b03166001600160a01b03166316dc165b6040518163ffffffff1660e01b8152600401602060405180830381865afa158015610754573d6000803e3d6000fd5b505050506040513d601f19601f8201168201806040525081019061077891906132a4565b600760009054906101000a90046001600160a01b03166001600160a01b031663b7d19fc46040518163ffffffff1660e01b8152600401602060405180830381865afa1580156107cb573d6000803e3d6000fd5b505050506040513d601f19601f820116820180604052508101906107ef91906132a4565b915091509091565b6000336108058582856122a4565b610810858585612336565b506001949350505050565b610823612523565b6007546001600160a01b03161561087c5760405162461bcd60e51b815260206004820152601b60248201527f5661756c743a20537472617465677920616c7265616479205365740000000000604482015260640161024f565b6007805473ffffffffffffffffffffffffffffffffffffffff19166001600160a01b0383169081179091556040519081527f7f37d440e85aba7fbf641c4bda5ca4ef669a80bffaacde2aa8d9feb1b048c82c9060200160405180910390a150565b60008060006108ea61257d565b60008711806108f95750600086115b6109455760405162461bcd60e51b815260206004820152601a60248201527f5661756c743a206465706f7369742063616e6e6f742062652030000000000000604482015260640161024f565b600254156109d657600754604080517f4641257d00000000000000000000000000000000000000000000000000000000815281516001600160a01b0390931692634641257d9260048084019391929182900301816000875af11580156109af573d6000803e3d6000fd5b505050506040513d601f19601f820116820180604052508101906109d391906132c1565b50505b6109e08787611426565b9194509250905082610a345760405162461bcd60e51b815260206004820152600660248201527f7368617265730000000000000000000000000000000000000000000000000000604482015260640161024f565b84821015610a845760405162461bcd60e51b815260206004820152600a60248201527f616d6f756e74304d696e00000000000000000000000000000000000000000000604482015260640161024f565b83811015610ad45760405162461bcd60e51b815260206004820152600a60248201527f616d6f756e74314d696e00000000000000000000000000000000000000000000604482015260640161024f565b8115610b6357600754604080516316dc165b60e01b81529051610b639233926001600160a01b0390911691869183916316dc165b916004808201926020929091908290030181865afa158015610b2e573d6000803e3d6000fd5b505050506040513d601f19601f82011682018060405250810190610b5291906132a4565b6001600160a01b03169291906125d6565b8015610bbd5760075460408051632df467f160e21b81529051610bbd9233926001600160a01b03909116918591839163b7d19fc4916004808201926020929091908290030181865afa158015610b2e573d6000803e3d6000fd5b610bc73384612687565b6040805133815260208101849052908101829052606081018490527f36af321ec8d3c75236829c5317affd40ddb308863a1236d2d277a4025cccee1e9060800160405180910390a1610c196001600655565b9450945094915050565b600080610c2e61257d565b60008311610c7e5760405162461bcd60e51b815260206004820152601960248201527f5661756c743a206275726e2030206e6f7420616c6c6f77656400000000000000604482015260640161024f565b33600090815260208190526040902054831115610c9a57600080fd5b6000610ca560025490565b9050610cb13385612746565b60008185600760009054906101000a90046001600160a01b03166001600160a01b0316633b6bc1a76040518163ffffffff1660e01b8152600401602060405180830381865afa158015610d08573d6000803e3d6000fd5b505050506040513d601f19601f82011682018060405250810190610d2c91906132e5565b610d369190613314565b610d409190613341565b905060008286600760009054906101000a90046001600160a01b03166001600160a01b0316637d3db0676040518163ffffffff1660e01b8152600401602060405180830381865afa158015610d99573d6000803e3d6000fd5b505050506040513d601f19601f82011682018060405250810190610dbd91906132e5565b610dc79190613314565b610dd19190613341565b600754604080516335a7476b60e21b815290519293506000928392610ecb926001600160a01b0390911691829163d69d1dac91600480830192889291908290030181865afa158015610e27573d6000803e3d6000fd5b505050506040513d6000823e601f3d908101601f19168201604052610e4f9190810190613379565b600760009054906101000a90046001600160a01b03166001600160a01b031663625af7676040518163ffffffff1660e01b8152600401602060405180830381865afa158015610ea2573d6000803e3d6000fd5b505050506040513d601f19601f82011682018060405250810190610ec691906132a4565b6128ac565b915091506000806000841180610ee15750600083115b15610f925760008a6001610efd8a670de0b6b3a7640000613314565b610f079190613437565b610f119190613341565b610f1c90600161344a565b600754604051639c8f9f2360e01b8152600481018390529192506001600160a01b031690639c8f9f239060240160408051808303816000875af1158015610f67573d6000803e3d6000fd5b505050506040513d601f19601f82011682018060405250810190610f8b91906132c1565b9093509150505b610f9c828761344a565b9850610fa8818661344a565b9750881561100257600754604080516316dc165b60e01b81529051611002926001600160a01b03169133918d9184916316dc165b916004808201926020929091908290030181865afa158015610b2e573d6000803e3d6000fd5b871561105a5760075460408051632df467f160e21b8152905161105a926001600160a01b03169133918c91849163b7d19fc4916004808201926020929091908290030181865afa158015610b2e573d6000803e3d6000fd5b60408051338152602081018b9052908101899052606081018b90527f02f25270a4d87bea75db541cdfe559334a275b4a233520ed6c0a2429667cca949060800160405180910390a1505050505050506110b36001600655565b915091565b3360008181526001602090815260408083206001600160a01b03871684529091528120549091906106f290829086906110f290879061344a565b61214b565b60008060007f00000000000000000000000000000000000000000000000000000000000000006001600160a01b0316600760009054906101000a90046001600160a01b03166001600160a01b03166316dc165b6040518163ffffffff1660e01b8152600401602060405180830381865afa158015611179573d6000803e3d6000fd5b505050506040513d601f19601f8201168201806040525081019061119d91906132a4565b6001600160a01b0316036111fa573487146111fa5760405162461bcd60e51b815260206004820152601960248201527f4e61746976653a20416d6f756e7473206e6f7420657175616c00000000000000604482015260640161024f565b60075460408051632df467f160e21b815290516001600160a01b037f0000000000000000000000000000000000000000000000000000000000000000811693169163b7d19fc49160048083019260209291908290030181865afa158015611265573d6000803e3d6000fd5b505050506040513d601f19601f8201168201806040525081019061128991906132a4565b6001600160a01b0316036112e6573486146112e65760405162461bcd60e51b815260206004820152601960248201527f4e61746976653a20416d6f756e7473206e6f7420657175616c00000000000000604482015260640161024f565b6112f03334612ac2565b6112fc878787876108dd565b9199909850909650945050505050565b611314612523565b604051627eeac760e11b8152306004820152602481018290526000906001600160a01b0384169062fdd58e90604401602060405180830381865afa158015611360573d6000803e3d6000fd5b505050506040513d601f19601f8201168201806040525081019061138491906132e5565b6040517f0febdd4900000000000000000000000000000000000000000000000000000000815230600482015233602482015260448101849052606481018290529091506001600160a01b03841690630febdd4990608401600060405180830381600087803b1580156113f557600080fd5b505af1158015611409573d6000803e3d6000fd5b50505050505050565b61141a612523565b6114246000612b6d565b565b60008060008061143560025490565b600754604080516335a7476b60e21b81529051929350600092839261148b926001600160a01b0390911691829163d69d1dac91600480830192889291908290030181865afa158015610e27573d6000803e3d6000fd5b91509150600760009054906101000a90046001600160a01b03166001600160a01b0316633b6bc1a76040518163ffffffff1660e01b8152600401602060405180830381865afa1580156114e2573d6000803e3d6000fd5b505050506040513d601f19601f8201168201806040525081019061150691906132e5565b611510908361344a565b9150600760009054906101000a90046001600160a01b03166001600160a01b0316637d3db0676040518163ffffffff1660e01b8152600401602060405180830381865afa158015611565573d6000803e3d6000fd5b505050506040513d601f19601f8201168201806040525081019061158991906132e5565b611593908261344a565b90508215806115a25750600082115b806115ad5750600081115b6115b9576115b961345d565b826000036115d8578794508693506115d18585612bcc565b95506116e8565b816000036115f857869350806115ee8486613314565b6115d19190613341565b8060000361160e57879450816115ee8487613314565b600061162c61161d838b613314565b611627858b613314565b612be4565b90506000811161167e5760405162461bcd60e51b815260206004820152600560248201527f63726f7373000000000000000000000000000000000000000000000000000000604482015260640161024f565b8161168a600183613437565b6116949190613341565b61169f90600161344a565b9550826116ad600183613437565b6116b79190613341565b6116c290600161344a565b945081836116d08684613314565b6116da9190613341565b6116e49190613341565b9650505b5050509250925092565b3360009081526020819052604090205461170b90610c23565b5050565b6060600480546106619061326a565b3360008181526001602090815260408083206001600160a01b0387168452909152812054909190838110156117bb5760405162461bcd60e51b815260206004820152602560248201527f45524332303a2064656372656173656420616c6c6f77616e63652062656c6f7760448201527f207a65726f000000000000000000000000000000000000000000000000000000606482015260840161024f565b610810828686840361214b565b6000336106f2818585612336565b60008060006117e460025490565b9050806000036117fa5750600093849350915050565b600754604080516335a7476b60e21b81529051611848926001600160a01b031691829163d69d1dac916004808201926000929091908290030181865afa158015610e27573d6000803e3d6000fd5b600754604080517f3b6bc1a700000000000000000000000000000000000000000000000000000000815290519396509194506001600160a01b031691633b6bc1a7916004808201926020929091908290030181865afa1580156118af573d6000803e3d6000fd5b505050506040513d601f19601f820116820180604052508101906118d391906132e5565b6118dd908461344a565b9250600760009054906101000a90046001600160a01b03166001600160a01b0316637d3db0676040518163ffffffff1660e01b8152600401602060405180830381865afa158015611932573d6000803e3d6000fd5b505050506040513d601f19601f8201168201806040525081019061195691906132e5565b611960908361344a565b91508061196d8585613314565b6119779190613341565b9250806119848584613314565b61198e9190613341565b915050915091565b6000806119a161257d565b600083116119f15760405162461bcd60e51b815260206004820152601960248201527f5661756c743a206275726e2030206e6f7420616c6c6f77656400000000000000604482015260640161024f565b33600090815260208190526040902054831115611a0d57600080fd5b6000611a1860025490565b9050611a243385612746565b60008185600760009054906101000a90046001600160a01b03166001600160a01b0316633b6bc1a76040518163ffffffff1660e01b8152600401602060405180830381865afa158015611a7b573d6000803e3d6000fd5b505050506040513d601f19601f82011682018060405250810190611a9f91906132e5565b611aa99190613314565b611ab39190613341565b905060008286600760009054906101000a90046001600160a01b03166001600160a01b0316637d3db0676040518163ffffffff1660e01b8152600401602060405180830381865afa158015611b0c573d6000803e3d6000fd5b505050506040513d601f19601f82011682018060405250810190611b3091906132e5565b611b3a9190613314565b611b449190613341565b600754604080516335a7476b60e21b815290519293506000928392611b9a926001600160a01b0390911691829163d69d1dac91600480830192889291908290030181865afa158015610e27573d6000803e3d6000fd5b915091506000806000841180611bb05750600083115b15611c615760008a6001611bcc8a670de0b6b3a7640000613314565b611bd69190613437565b611be09190613341565b611beb90600161344a565b600754604051639c8f9f2360e01b8152600481018390529192506001600160a01b031690639c8f9f239060240160408051808303816000875af1158015611c36573d6000803e3d6000fd5b505050506040513d601f19601f82011682018060405250810190611c5a91906132c1565b9093509150505b611c6b828761344a565b9850611c77818661344a565b97508815611e4957600754604080516316dc165b60e01b815290516001600160a01b037f000000000000000000000000000000000000000000000000000000000000000081169316916316dc165b9160048083019260209291908290030181865afa158015611cea573d6000803e3d6000fd5b505050506040513d601f19601f82011682018060405250810190611d0e91906132a4565b6001600160a01b031603611df757600754604080516316dc165b60e01b81529051611d6e926001600160a01b03169130918d9184916316dc165b916004808201926020929091908290030181865afa158015610b2e573d6000803e3d6000fd5b604051632e1a7d4d60e01b8152600481018a90527f00000000000000000000000000000000000000000000000000000000000000006001600160a01b031690632e1a7d4d90602401600060405180830381600087803b158015611dd057600080fd5b505af1158015611de4573d6000803e3d6000fd5b50505050611df2338a612bf3565b611e49565b600754604080516316dc165b60e01b81529051611e49926001600160a01b03169133918d9184916316dc165b916004808201926020929091908290030181865afa158015610b2e573d6000803e3d6000fd5b871561105a5760075460408051632df467f160e21b815290516001600160a01b037f0000000000000000000000000000000000000000000000000000000000000000811693169163b7d19fc49160048083019260209291908290030181865afa158015611eba573d6000803e3d6000fd5b505050506040513d601f19601f82011682018060405250810190611ede91906132a4565b6001600160a01b031603611fc75760075460408051632df467f160e21b81529051611f3e926001600160a01b03169130918c91849163b7d19fc4916004808201926020929091908290030181865afa158015610b2e573d6000803e3d6000fd5b604051632e1a7d4d60e01b8152600481018990527f00000000000000000000000000000000000000000000000000000000000000006001600160a01b031690632e1a7d4d90602401600060405180830381600087803b158015611fa057600080fd5b505af1158015611fb4573d6000803e3d6000fd5b50505050611fc23389612bf3565b61105a565b60075460408051632df467f160e21b8152905161105a926001600160a01b03169133918c91849163b7d19fc4916004808201926020929091908290030181865afa158015610b2e573d6000803e3d6000fd5b612021612523565b6040517f70a082310000000000000000000000000000000000000000000000000000000081523060048201526000906001600160a01b038316906370a0823190602401602060405180830381865afa158015612081573d6000803e3d6000fd5b505050506040513d601f19601f820116820180604052508101906120a591906132e5565b905061170b6001600160a01b0383163383612c96565b6120c3612523565b6001600160a01b03811661213f5760405162461bcd60e51b815260206004820152602660248201527f4f776e61626c653a206e6577206f776e657220697320746865207a65726f206160448201527f6464726573730000000000000000000000000000000000000000000000000000606482015260840161024f565b61214881612b6d565b50565b6001600160a01b0383166121c65760405162461bcd60e51b8152602060048201526024808201527f45524332303a20617070726f76652066726f6d20746865207a65726f2061646460448201527f7265737300000000000000000000000000000000000000000000000000000000606482015260840161024f565b6001600160a01b0382166122425760405162461bcd60e51b815260206004820152602260248201527f45524332303a20617070726f766520746f20746865207a65726f20616464726560448201527f7373000000000000000000000000000000000000000000000000000000000000606482015260840161024f565b6001600160a01b0383811660008181526001602090815260408083209487168084529482529182902085905590518481527f8c5be1e5ebec7d5bd14f71427d1e84f3dd0314c0f7b2291e5b200ac8c7c3b92591015b60405180910390a3505050565b6001600160a01b03838116600090815260016020908152604080832093861683529290522054600019811461233057818110156123235760405162461bcd60e51b815260206004820152601d60248201527f45524332303a20696e73756666696369656e7420616c6c6f77616e6365000000604482015260640161024f565b612330848484840361214b565b50505050565b6001600160a01b0383166123b25760405162461bcd60e51b815260206004820152602560248201527f45524332303a207472616e736665722066726f6d20746865207a65726f20616460448201527f6472657373000000000000000000000000000000000000000000000000000000606482015260840161024f565b6001600160a01b03821661242e5760405162461bcd60e51b815260206004820152602360248201527f45524332303a207472616e7366657220746f20746865207a65726f206164647260448201527f6573730000000000000000000000000000000000000000000000000000000000606482015260840161024f565b6001600160a01b038316600090815260208190526040902054818110156124bd5760405162461bcd60e51b815260206004820152602660248201527f45524332303a207472616e7366657220616d6f756e742065786365656473206260448201527f616c616e63650000000000000000000000000000000000000000000000000000606482015260840161024f565b6001600160a01b03848116600081815260208181526040808320878703905593871680835291849020805487019055925185815290927fddf252ad1be2c89b69c2b068fc378daa952ba7f163c4a11628f55a4df523b3ef910160405180910390a3612330565b6005546001600160a01b031633146114245760405162461bcd60e51b815260206004820181905260248201527f4f776e61626c653a2063616c6c6572206973206e6f7420746865206f776e6572604482015260640161024f565b6002600654036125cf5760405162461bcd60e51b815260206004820152601f60248201527f5265656e7472616e637947756172643a207265656e7472616e742063616c6c00604482015260640161024f565b6002600655565b6040516001600160a01b03808516602483015283166044820152606481018290526123309085907f23b872dd00000000000000000000000000000000000000000000000000000000906084015b60408051601f198184030181529190526020810180517bffffffffffffffffffffffffffffffffffffffffffffffffffffffff167fffffffff0000000000000000000000000000000000000000000000000000000090931692909217909152612cdf565b6001600160a01b0382166126dd5760405162461bcd60e51b815260206004820152601f60248201527f45524332303a206d696e7420746f20746865207a65726f206164647265737300604482015260640161024f565b80600260008282546126ef919061344a565b90915550506001600160a01b038216600081815260208181526040808320805486019055518481527fddf252ad1be2c89b69c2b068fc378daa952ba7f163c4a11628f55a4df523b3ef910160405180910390a35050565b6001600160a01b0382166127c25760405162461bcd60e51b815260206004820152602160248201527f45524332303a206275726e2066726f6d20746865207a65726f2061646472657360448201527f7300000000000000000000000000000000000000000000000000000000000000606482015260840161024f565b6001600160a01b038216600090815260208190526040902054818110156128515760405162461bcd60e51b815260206004820152602260248201527f45524332303a206275726e20616d6f756e7420657863656564732062616c616e60448201527f6365000000000000000000000000000000000000000000000000000000000000606482015260840161024f565b6001600160a01b0383166000818152602081815260408083208686039055600280548790039055518581529192917fddf252ad1be2c89b69c2b068fc378daa952ba7f163c4a11628f55a4df523b3ef9101612297565b505050565b60008060005b8451811015612ab95760006128df8683815181106128d2576128d2613473565b6020026020010151612dc4565b604051627eeac760e11b81526001600160a01b03898116600483015262ffffff8316602483015291925060009187169062fdd58e90604401602060405180830381865afa158015612934573d6000803e3d6000fd5b505050506040513d601f19601f8201168201806040525081019061295891906132e5565b6040517f0abe968800000000000000000000000000000000000000000000000000000000815262ffffff8416600482015290915060009081906001600160a01b03891690630abe9688906024016040805180830381865afa1580156129c1573d6000803e3d6000fd5b505050506040513d601f19601f820116820180604052508101906129e591906132c1565b6040517fbd85b03900000000000000000000000000000000000000000000000000000000815262ffffff8716600482015291935091506000906001600160a01b038a169063bd85b03990602401602060405180830381865afa158015612a4f573d6000803e3d6000fd5b505050506040513d601f19601f82011682018060405250810190612a7391906132e5565b9050612a80848483612e0b565b612a8a908961344a565b9750612a97848383612e0b565b612aa1908861344a565b9650505050505080612ab290613489565b90506128b2565b50935093915050565b7f00000000000000000000000000000000000000000000000000000000000000006001600160a01b031663d0e30db0826040518263ffffffff1660e01b81526004016000604051808303818588803b158015612b1d57600080fd5b505af1158015612b31573d6000803e3d6000fd5b5061170b9350506001600160a01b037f000000000000000000000000000000000000000000000000000000000000000016915084905083612c96565b600580546001600160a01b0383811673ffffffffffffffffffffffffffffffffffffffff19831681179093556040519116919082907f8be0079c531659141344cd1fd0a4f28419497f9722a3daafe3b4186f6b6457e090600090a35050565b6000818311612bdb5781612bdd565b825b9392505050565b6000818310612bdb5781612bdd565b6000826001600160a01b03168260405160006040518083038185875af1925050503d8060008114612c40576040519150601f19603f3d011682016040523d82523d6000602084013e612c45565b606091505b50509050806128a75760405162461bcd60e51b815260206004820181905260248201527f5661756c744e61746976653a204661696c656420746f2053656e642041564158604482015260640161024f565b6040516001600160a01b0383166024820152604481018290526128a79084907fa9059cbb0000000000000000000000000000000000000000000000000000000090606401612623565b6000612d34826040518060400160405280602081526020017f5361666545524332303a206c6f772d6c6576656c2063616c6c206661696c6564815250856001600160a01b0316612e359092919063ffffffff16565b8051909150156128a75780806020019051810190612d5291906134a2565b6128a75760405162461bcd60e51b815260206004820152602a60248201527f5361666545524332303a204552433230206f7065726174696f6e20646964206e60448201527f6f74207375636365656400000000000000000000000000000000000000000000606482015260840161024f565b8062ffffff81168114612e06576040517f76949f3c0000000000000000000000000000000000000000000000000000000081526004810183905260240161024f565b919050565b6000806000612e1a8686612e4c565b91509150612e2b8686868585612e6b565b9695505050505050565b6060612e448484600085612f3e565b949350505050565b6000806000198385098385029250828110838203039150509250929050565b600081600003612e8c57838381612e8457612e8461332b565b049050612f35565b838210612ecf576040517fcad6a856000000000000000000000000000000000000000000000000000000008152600481018390526024810185905260440161024f565b60008486880960018619810187169687900496600081900381900490910186831190950394850291909503949094049390931792505060026003840281188085028203028085028203028085028203028085028203028085028203028085029091030282025b95945050505050565b606082471015612fb65760405162461bcd60e51b815260206004820152602660248201527f416464726573733a20696e73756666696369656e742062616c616e636520666f60448201527f722063616c6c0000000000000000000000000000000000000000000000000000606482015260840161024f565b600080866001600160a01b03168587604051612fd291906134c4565b60006040518083038185875af1925050503d806000811461300f576040519150601f19603f3d011682016040523d82523d6000602084013e613014565b606091505b509150915061302587838387613030565b979650505050505050565b6060831561309f578251600003613098576001600160a01b0385163b6130985760405162461bcd60e51b815260206004820152601d60248201527f416464726573733a2063616c6c20746f206e6f6e2d636f6e7472616374000000604482015260640161024f565b5081612e44565b612e4483838151156130b45781518083602001fd5b8060405162461bcd60e51b815260040161024f91906130f2565b60005b838110156130e95781810151838201526020016130d1565b50506000910152565b60208152600082518060208401526131118160408501602087016130ce565b601f01601f19169190910160400192915050565b6001600160a01b038116811461214857600080fd5b6000806040838503121561314d57600080fd5b823561315881613125565b946020939093013593505050565b60008060006060848603121561317b57600080fd5b833561318681613125565b9250602084013561319681613125565b929592945050506040919091013590565b6000602082840312156131b957600080fd5b8135612bdd81613125565b600080600080608085870312156131da57600080fd5b5050823594602084013594506040840135936060013592509050565b60006020828403121561320857600080fd5b5035919050565b6000806040838503121561322257600080fd5b50508035926020909101359150565b6000806040838503121561324457600080fd5b823561324f81613125565b9150602083013561325f81613125565b809150509250929050565b600181811c9082168061327e57607f821691505b60208210810361329e57634e487b7160e01b600052602260045260246000fd5b50919050565b6000602082840312156132b657600080fd5b8151612bdd81613125565b600080604083850312156132d457600080fd5b505080516020909101519092909150565b6000602082840312156132f757600080fd5b5051919050565b634e487b7160e01b600052601160045260246000fd5b80820281158282048414176106f8576106f86132fe565b634e487b7160e01b600052601260045260246000fd5b60008261335e57634e487b7160e01b600052601260045260246000fd5b500490565b634e487b7160e01b600052604160045260246000fd5b6000602080838503121561338c57600080fd5b825167ffffffffffffffff808211156133a457600080fd5b818501915085601f8301126133b857600080fd5b8151818111156133ca576133ca613363565b8060051b604051601f19603f830116810181811085821117156133ef576133ef613363565b60405291825284820192508381018501918883111561340d57600080fd5b938501935b8285101561342b57845184529385019392850192613412565b98975050505050505050565b818103818111156106f8576106f86132fe565b808201808211156106f8576106f86132fe565b634e487b7160e01b600052600160045260246000fd5b634e487b7160e01b600052603260045260246000fd5b60006001820161349b5761349b6132fe565b5060010190565b6000602082840312156134b457600080fd5b81518015158114612bdd57600080fd5b600082516134d68184602087016130ce565b919091019291505056fea26469706673582212206725d4575f90b8392d8803fa572988598d13832d8ba4d882aeb3275cb3b5e8c964736f6c63430008110033",
  "devdoc": {
    "kind": "dev",
    "methods": {
      "allowance(address,address)": {
        "details": "See {IERC20-allowance}."
      },
      "approve(address,uint256)": {
        "details": "See {IERC20-approve}. NOTE: If `amount` is the maximum `uint256`, the allowance is not updated on `transferFrom`. This is semantically equivalent to an infinite approval. Requirements: - `spender` cannot be the zero address."
      },
      "balanceOf(address)": {
        "details": "See {IERC20-balanceOf}."
      },
      "calcSharesAndAmounts(uint256,uint256)": {
        "details": "Calculates the largest possible `amountx` and `amountY` such that they're in the same proportion as total amounts, but not greater than `amountXDesired` and `amountYDesired` respectively."
      },
      "decimals()": {
        "details": "Returns the number of decimals used to get its user representation. For example, if `decimals` equals `2`, a balance of `505` tokens should be displayed to a user as `5.05` (`505 / 10 ** 2`). Tokens usually opt for a value of 18, imitating the relationship between Ether and Wei. This is the value {ERC20} uses, unless this function is overridden; NOTE: This information is only used for _display_ purposes: it in no way affects any of the arithmetic of the contract, including {IERC20-balanceOf} and {IERC20-transfer}."
      },
      "decreaseAllowance(address,uint256)": {
        "details": "Atomically decreases the allowance granted to `spender` by the caller. This is an alternative to {approve} that can be used as a mitigation for problems described in {IERC20-approve}. Emits an {Approval} event indicating the updated allowance. Requirements: - `spender` cannot be the zero address. - `spender` must have allowance for the caller of at least `subtractedValue`."
      },
      "deposit(uint256,uint256,uint256,uint256)": {
        "params": {
          "amountX": "amount of tokenX to deposit",
          "amountXMin": "miniumum amount of tokenX to deposit incl. slippage",
          "amountY": "amount of tokenY to deposit",
          "amountYMin": "miniumum amount of tokenY to deposit incl. slippage"
        },
        "returns": {
          "amountXActual": "amount token X accepted as deposit",
          "amountYActual": "amount token Y accepted as deposit",
          "shares": "minted to the depoositor"
        }
      },
      "depositAVAXPair(uint256,uint256,uint256,uint256)": {
        "params": {
          "amountX": "amount of tokenX to deposit",
          "amountXMin": "miniumum amount of tokenX to deposit incl. slippage",
          "amountY": "amount of tokenY to deposit",
          "amountYMin": "miniumum amount of tokenY to deposit incl. slippage"
        },
        "returns": {
          "amountXActual": "amount token X accepted as deposit",
          "amountYActual": "amount token Y accepted as deposit",
          "shares": "minted to the depoositor"
        }
      },
      "getUnderlyingAssets(uint256)": {
        "params": {
          "_shares": "amount of shares"
        },
        "returns": {
          "totalX": "amounts of tokenX",
          "totalY": "amounts of tokenY"
        }
      },
      "inCaseLBTokensGetStuck(address,uint256)": {
        "params": {
          "_id": "id of the token to rescue.",
          "_lbToken": "address of the token to rescue."
        }
      },
      "inCaseTokensGetStuck(address)": {
        "params": {
          "_token": "address of the token to rescue."
        }
      },
      "increaseAllowance(address,uint256)": {
        "details": "Atomically increases the allowance granted to `spender` by the caller. This is an alternative to {approve} that can be used as a mitigation for problems described in {IERC20-approve}. Emits an {Approval} event indicating the updated allowance. Requirements: - `spender` cannot be the zero address."
      },
      "name()": {
        "details": "Returns the name of the token."
      },
      "owner()": {
        "details": "Returns the address of the current owner."
      },
      "renounceOwnership()": {
        "details": "Leaves the contract without owner. It will not be possible to call `onlyOwner` functions anymore. Can only be called by the current owner. NOTE: Renouncing ownership will leave the contract without an owner, thereby removing any functionality that is only available to the owner."
      },
      "setStrategyAddress(address)": {
        "params": {
          "_strategy": "address of the proposed new strategy."
        }
      },
      "symbol()": {
        "details": "Returns the symbol of the token, usually a shorter version of the name."
      },
      "totalSupply()": {
        "details": "See {IERC20-totalSupply}."
      },
      "transfer(address,uint256)": {
        "details": "See {IERC20-transfer}. Requirements: - `to` cannot be the zero address. - the caller must have a balance of at least `amount`."
      },
      "transferFrom(address,address,uint256)": {
        "details": "See {IERC20-transferFrom}. Emits an {Approval} event indicating the updated allowance. This is not required by the EIP. See the note at the beginning of {ERC20}. NOTE: Does not update the allowance if the current allowance is the maximum `uint256`. Requirements: - `from` and `to` cannot be the zero address. - `from` must have a balance of at least `amount`. - the caller must have allowance for ``from``'s tokens of at least `amount`."
      },
      "transferOwnership(address)": {
        "details": "Transfers ownership of the contract to a new account (`newOwner`). Can only be called by the current owner."
      },
      "want()": {
        "returns": {
          "_0": "tokenX address of first token",
          "_1": "tokenY address of second token"
        }
      },
      "withdraw(uint256)": {
        "params": {
          "_shares": "amount of shares to withdraw from the system"
        },
        "returns": {
          "amountX": "the amount of token X removed",
          "amountY": "the amount of token Y removed"
        }
      },
      "withdrawAVAXPair(uint256)": {
        "params": {
          "_shares": "amount of shares to withdraw from the system"
        },
        "returns": {
          "amountX": "the amount of token X removed",
          "amountY": "the amount of token Y removed"
        }
      }
    },
    "version": 1
  },
  "userdoc": {
    "errors": {
      "Math512Bits__MulDivOverflow(uint256,uint256)": [
        {
          "notice": "Math512Bits errors "
        }
      ]
    },
    "events": {
      "UpgradeStrat(address)": {
        "notice": "----------------------------------------------------------- Events -----------------------------------------------------------"
      }
    },
    "kind": "user",
    "methods": {
      "constructor": {
        "notice": "----------------------------------------------------------- Constructor -----------------------------------------------------------"
      },
      "deposit(uint256,uint256,uint256,uint256)": {
        "notice": "primary entrypoint of funds into the system. users deposit with this function into the vault. The vault is then in charge of sending funds into the strategy. funds stay idle in the strategy until earn() is called on the strategy and valid parametersDeposits tokens in proportion to the vault's current holdings."
      },
      "depositAVAXPair(uint256,uint256,uint256,uint256)": {
        "notice": "Alternative entry point into the strat. You can send native AVAX, and the vault will wrap them before depositing them into the strat.Deposits tokens in proportion to the vault's current holdings."
      },
      "getUnderlyingAssets(uint256)": {
        "notice": "Gets the underlying assets in the vault i.e tokenX and tokenY includes all tokenX and tokenY idle in the strategy and supplied as liquidity"
      },
      "inCaseLBTokensGetStuck(address,uint256)": {
        "notice": "Rescues LB tokens funds stuck"
      },
      "inCaseTokensGetStuck(address)": {
        "notice": "Rescues funds stuck"
      },
      "setStrategyAddress(address)": {
        "notice": "Allows the vaults underlying strategy to be swapped out after first deploy"
      },
      "want()": {
        "notice": "returns the input tokens that may be deposited to this vault"
      },
      "withdraw(uint256)": {
        "notice": "primary exit point of funds from the system. users withdraw using this function."
      },
      "withdrawAVAXPair(uint256)": {
        "notice": "alternative exitpoint of native funds from the system. People withdraw from this function."
      },
      "withdrawAll()": {
        "notice": "a helper which will withdraw all of the users shares from the vault"
      }
    },
    "version": 1
  },
  "storageLayout": {
    "storage": [
      {
        "astId": 348,
        "contract": "contracts/vault/LBVaultNative.sol:LBVaultV1Native",
        "label": "_balances",
        "offset": 0,
        "slot": "0",
        "type": "t_mapping(t_address,t_uint256)"
      },
      {
        "astId": 354,
        "contract": "contracts/vault/LBVaultNative.sol:LBVaultV1Native",
        "label": "_allowances",
        "offset": 0,
        "slot": "1",
        "type": "t_mapping(t_address,t_mapping(t_address,t_uint256))"
      },
      {
        "astId": 356,
        "contract": "contracts/vault/LBVaultNative.sol:LBVaultV1Native",
        "label": "_totalSupply",
        "offset": 0,
        "slot": "2",
        "type": "t_uint256"
      },
      {
        "astId": 358,
        "contract": "contracts/vault/LBVaultNative.sol:LBVaultV1Native",
        "label": "_name",
        "offset": 0,
        "slot": "3",
        "type": "t_string_storage"
      },
      {
        "astId": 360,
        "contract": "contracts/vault/LBVaultNative.sol:LBVaultV1Native",
        "label": "_symbol",
        "offset": 0,
        "slot": "4",
        "type": "t_string_storage"
      },
      {
        "astId": 65,
        "contract": "contracts/vault/LBVaultNative.sol:LBVaultV1Native",
        "label": "_owner",
        "offset": 0,
        "slot": "5",
        "type": "t_address"
      },
      {
        "astId": 289,
        "contract": "contracts/vault/LBVaultNative.sol:LBVaultV1Native",
        "label": "_status",
        "offset": 0,
        "slot": "6",
        "type": "t_uint256"
      },
      {
        "astId": 10492,
        "contract": "contracts/vault/LBVaultNative.sol:LBVaultV1Native",
        "label": "strategy",
        "offset": 0,
        "slot": "7",
        "type": "t_contract(ILBStrategy)8584"
      }
    ],
    "types": {
      "t_address": {
        "encoding": "inplace",
        "label": "address",
        "numberOfBytes": "20"
      },
      "t_contract(ILBStrategy)8584": {
        "encoding": "inplace",
        "label": "contract ILBStrategy",
        "numberOfBytes": "20"
      },
      "t_mapping(t_address,t_mapping(t_address,t_uint256))": {
        "encoding": "mapping",
        "key": "t_address",
        "label": "mapping(address => mapping(address => uint256))",
        "numberOfBytes": "32",
        "value": "t_mapping(t_address,t_uint256)"
      },
      "t_mapping(t_address,t_uint256)": {
        "encoding": "mapping",
        "key": "t_address",
        "label": "mapping(address => uint256)",
        "numberOfBytes": "32",
        "value": "t_uint256"
      },
      "t_string_storage": {
        "encoding": "bytes",
        "label": "string",
        "numberOfBytes": "32"
      },
      "t_uint256": {
        "encoding": "inplace",
        "label": "uint256",
        "numberOfBytes": "32"
      }
    }
  }
}