{
  "address": "0xd44317158Ce7DfFFB87E59442777b88eBA901888",
  "abi": [
    {
      "inputs": [
        {
          "internalType": "address",
          "name": "_joeRouter",
          "type": "address"
        },
        {
          "internalType": "address",
          "name": "_keeper",
          "type": "address"
        },
        {
          "internalType": "address",
          "name": "_vault",
          "type": "address"
        },
        {
          "components": [
            {
              "internalType": "contract IERC20",
              "name": "tokenX",
              "type": "address"
            },
            {
              "internalType": "contract IERC20",
              "name": "tokenY",
              "type": "address"
            },
            {
              "internalType": "address",
              "name": "pair",
              "type": "address"
            },
            {
              "internalType": "uint16",
              "name": "binStep",
              "type": "uint16"
            },
            {
              "internalType": "int256[]",
              "name": "deltaIds",
              "type": "int256[]"
            },
            {
              "internalType": "uint256[]",
              "name": "distributionX",
              "type": "uint256[]"
            },
            {
              "internalType": "uint256[]",
              "name": "distributionY",
              "type": "uint256[]"
            },
            {
              "internalType": "uint256",
              "name": "idSlippage",
              "type": "uint256"
            }
          ],
          "internalType": "struct ILBStrategy.StrategyParameters",
          "name": "_strategyParams",
          "type": "tuple"
        }
      ],
      "stateMutability": "nonpayable",
      "type": "constructor"
    },
    {
      "inputs": [
        {
          "internalType": "uint256",
          "name": "prod1",
          "type": "uint256"
        },
        {
          "internalType": "uint256",
          "name": "denominator",
          "type": "uint256"
        }
      ],
      "name": "Math512Bits__MulDivOverflow",
      "type": "error"
    },
    {
      "inputs": [
        {
          "internalType": "uint256",
          "name": "x",
          "type": "uint256"
        }
      ],
      "name": "SafeCast__Exceeds24Bits",
      "type": "error"
    },
    {
      "anonymous": false,
      "inputs": [
        {
          "indexed": false,
          "internalType": "address",
          "name": "user",
          "type": "address"
        },
        {
          "indexed": false,
          "internalType": "uint256",
          "name": "amountX",
          "type": "uint256"
        },
        {
          "indexed": false,
          "internalType": "uint256",
          "name": "amountY",
          "type": "uint256"
        },
        {
          "indexed": false,
          "internalType": "uint256",
          "name": "liquidity",
          "type": "uint256"
        }
      ],
      "name": "AddLiquidity",
      "type": "event"
    },
    {
      "anonymous": false,
      "inputs": [
        {
          "indexed": false,
          "internalType": "uint256",
          "name": "lastHarvest",
          "type": "uint256"
        },
        {
          "indexed": false,
          "internalType": "uint256",
          "name": "amountXBefore",
          "type": "uint256"
        },
        {
          "indexed": false,
          "internalType": "uint256",
          "name": "amountYBefore",
          "type": "uint256"
        },
        {
          "indexed": false,
          "internalType": "uint256",
          "name": "amountXAfter",
          "type": "uint256"
        },
        {
          "indexed": false,
          "internalType": "uint256",
          "name": "amountYAfter",
          "type": "uint256"
        }
      ],
      "name": "CollectRewards",
      "type": "event"
    },
    {
      "anonymous": false,
      "inputs": [
        {
          "indexed": false,
          "internalType": "uint256",
          "name": "amountX",
          "type": "uint256"
        },
        {
          "indexed": false,
          "internalType": "uint256",
          "name": "amountY",
          "type": "uint256"
        }
      ],
      "name": "FeeTransfer",
      "type": "event"
    },
    {
      "anonymous": false,
      "inputs": [
        {
          "indexed": true,
          "internalType": "address",
          "name": "previousOwner",
          "type": "address"
        },
        {
          "indexed": true,
          "internalType": "address",
          "name": "newOwner",
          "type": "address"
        }
      ],
      "name": "OwnershipTransferred",
      "type": "event"
    },
    {
      "anonymous": false,
      "inputs": [
        {
          "indexed": false,
          "internalType": "address",
          "name": "account",
          "type": "address"
        }
      ],
      "name": "Paused",
      "type": "event"
    },
    {
      "anonymous": false,
      "inputs": [
        {
          "indexed": false,
          "internalType": "uint256",
          "name": "amountXBefore",
          "type": "uint256"
        },
        {
          "indexed": false,
          "internalType": "uint256",
          "name": "amountYBefore",
          "type": "uint256"
        },
        {
          "indexed": false,
          "internalType": "uint256",
          "name": "amountXAfter",
          "type": "uint256"
        },
        {
          "indexed": false,
          "internalType": "uint256",
          "name": "amountYAfter",
          "type": "uint256"
        }
      ],
      "name": "Rebalance",
      "type": "event"
    },
    {
      "anonymous": false,
      "inputs": [
        {
          "indexed": false,
          "internalType": "address",
          "name": "user",
          "type": "address"
        },
        {
          "indexed": false,
          "internalType": "uint256",
          "name": "amountX",
          "type": "uint256"
        },
        {
          "indexed": false,
          "internalType": "uint256",
          "name": "amountY",
          "type": "uint256"
        }
      ],
      "name": "RemoveLiquidity",
      "type": "event"
    },
    {
      "anonymous": false,
      "inputs": [
        {
          "indexed": false,
          "internalType": "address",
          "name": "joeRouter",
          "type": "address"
        }
      ],
      "name": "SetJoeRouter",
      "type": "event"
    },
    {
      "anonymous": false,
      "inputs": [
        {
          "indexed": false,
          "internalType": "address",
          "name": "keeper",
          "type": "address"
        }
      ],
      "name": "SetKeeper",
      "type": "event"
    },
    {
      "anonymous": false,
      "inputs": [
        {
          "indexed": false,
          "internalType": "address",
          "name": "account",
          "type": "address"
        }
      ],
      "name": "Unpaused",
      "type": "event"
    },
    {
      "inputs": [],
      "name": "beforeDeposit",
      "outputs": [],
      "stateMutability": "nonpayable",
      "type": "function"
    },
    {
      "inputs": [
        {
          "internalType": "int256[]",
          "name": "_deltaIds",
          "type": "int256[]"
        }
      ],
      "name": "binHasXLiquidity",
      "outputs": [
        {
          "internalType": "bool",
          "name": "hasXLiquidity",
          "type": "bool"
        }
      ],
      "stateMutability": "pure",
      "type": "function"
    },
    {
      "inputs": [
        {
          "internalType": "int256[]",
          "name": "_deltaIds",
          "type": "int256[]"
        }
      ],
      "name": "binHasYLiquidity",
      "outputs": [
        {
          "internalType": "bool",
          "name": "hasYLiquidity",
          "type": "bool"
        }
      ],
      "stateMutability": "pure",
      "type": "function"
    },
    {
      "inputs": [],
      "name": "binStep",
      "outputs": [
        {
          "internalType": "uint16",
          "name": "",
          "type": "uint16"
        }
      ],
      "stateMutability": "view",
      "type": "function"
    },
    {
      "inputs": [
        {
          "internalType": "int256[]",
          "name": "proposedDeltas",
          "type": "int256[]"
        },
        {
          "internalType": "uint256",
          "name": "activeId",
          "type": "uint256"
        }
      ],
      "name": "checkProposedBinLength",
      "outputs": [
        {
          "internalType": "uint256",
          "name": "",
          "type": "uint256"
        }
      ],
      "stateMutability": "view",
      "type": "function"
    },
    {
      "inputs": [
        {
          "internalType": "uint256",
          "name": "",
          "type": "uint256"
        }
      ],
      "name": "deltaIds",
      "outputs": [
        {
          "internalType": "int256",
          "name": "",
          "type": "int256"
        }
      ],
      "stateMutability": "view",
      "type": "function"
    },
    {
      "inputs": [
        {
          "internalType": "uint256",
          "name": "",
          "type": "uint256"
        }
      ],
      "name": "distributionX",
      "outputs": [
        {
          "internalType": "uint256",
          "name": "",
          "type": "uint256"
        }
      ],
      "stateMutability": "view",
      "type": "function"
    },
    {
      "inputs": [
        {
          "internalType": "uint256",
          "name": "",
          "type": "uint256"
        }
      ],
      "name": "distributionY",
      "outputs": [
        {
          "internalType": "uint256",
          "name": "",
          "type": "uint256"
        }
      ],
      "stateMutability": "view",
      "type": "function"
    },
    {
      "inputs": [],
      "name": "earn",
      "outputs": [
        {
          "internalType": "uint256",
          "name": "amountX",
          "type": "uint256"
        },
        {
          "internalType": "uint256",
          "name": "amountY",
          "type": "uint256"
        }
      ],
      "stateMutability": "nonpayable",
      "type": "function"
    },
    {
      "inputs": [
        {
          "internalType": "int256[]",
          "name": "_deltaIds",
          "type": "int256[]"
        },
        {
          "internalType": "uint256[]",
          "name": "_distributionX",
          "type": "uint256[]"
        },
        {
          "internalType": "uint256[]",
          "name": "_distributionY",
          "type": "uint256[]"
        },
        {
          "internalType": "uint256",
          "name": "_idSlippage",
          "type": "uint256"
        }
      ],
      "name": "executeRebalance",
      "outputs": [
        {
          "internalType": "uint256",
          "name": "amountX",
          "type": "uint256"
        },
        {
          "internalType": "uint256",
          "name": "amountY",
          "type": "uint256"
        }
      ],
      "stateMutability": "nonpayable",
      "type": "function"
    },
    {
      "inputs": [],
      "name": "executeRebalance",
      "outputs": [
        {
          "internalType": "uint256",
          "name": "amountX",
          "type": "uint256"
        },
        {
          "internalType": "uint256",
          "name": "amountY",
          "type": "uint256"
        }
      ],
      "stateMutability": "nonpayable",
      "type": "function"
    },
    {
      "inputs": [],
      "name": "getActiveBinIds",
      "outputs": [
        {
          "internalType": "uint256[]",
          "name": "activeBinIds",
          "type": "uint256[]"
        }
      ],
      "stateMutability": "view",
      "type": "function"
    },
    {
      "inputs": [],
      "name": "getBalanceX",
      "outputs": [
        {
          "internalType": "uint256",
          "name": "",
          "type": "uint256"
        }
      ],
      "stateMutability": "view",
      "type": "function"
    },
    {
      "inputs": [],
      "name": "getBalanceY",
      "outputs": [
        {
          "internalType": "uint256",
          "name": "",
          "type": "uint256"
        }
      ],
      "stateMutability": "view",
      "type": "function"
    },
    {
      "inputs": [],
      "name": "getTotalAmounts",
      "outputs": [
        {
          "internalType": "uint256",
          "name": "totalX",
          "type": "uint256"
        },
        {
          "internalType": "uint256",
          "name": "totalY",
          "type": "uint256"
        }
      ],
      "stateMutability": "view",
      "type": "function"
    },
    {
      "inputs": [],
      "name": "harvest",
      "outputs": [
        {
          "internalType": "uint256",
          "name": "amountXReceived",
          "type": "uint256"
        },
        {
          "internalType": "uint256",
          "name": "amountYReceived",
          "type": "uint256"
        }
      ],
      "stateMutability": "nonpayable",
      "type": "function"
    },
    {
      "inputs": [],
      "name": "idSlippage",
      "outputs": [
        {
          "internalType": "uint256",
          "name": "",
          "type": "uint256"
        }
      ],
      "stateMutability": "view",
      "type": "function"
    },
    {
      "inputs": [],
      "name": "joeRouter",
      "outputs": [
        {
          "internalType": "address",
          "name": "",
          "type": "address"
        }
      ],
      "stateMutability": "view",
      "type": "function"
    },
    {
      "inputs": [],
      "name": "keeper",
      "outputs": [
        {
          "internalType": "address",
          "name": "",
          "type": "address"
        }
      ],
      "stateMutability": "view",
      "type": "function"
    },
    {
      "inputs": [],
      "name": "lastHarvest",
      "outputs": [
        {
          "internalType": "uint256",
          "name": "",
          "type": "uint256"
        }
      ],
      "stateMutability": "view",
      "type": "function"
    },
    {
      "inputs": [],
      "name": "lbPair",
      "outputs": [
        {
          "internalType": "contract ILBPair",
          "name": "",
          "type": "address"
        }
      ],
      "stateMutability": "view",
      "type": "function"
    },
    {
      "inputs": [],
      "name": "lbToken",
      "outputs": [
        {
          "internalType": "contract ILBToken",
          "name": "",
          "type": "address"
        }
      ],
      "stateMutability": "view",
      "type": "function"
    },
    {
      "inputs": [],
      "name": "owner",
      "outputs": [
        {
          "internalType": "address",
          "name": "",
          "type": "address"
        }
      ],
      "stateMutability": "view",
      "type": "function"
    },
    {
      "inputs": [],
      "name": "panic",
      "outputs": [],
      "stateMutability": "nonpayable",
      "type": "function"
    },
    {
      "inputs": [],
      "name": "pause",
      "outputs": [],
      "stateMutability": "nonpayable",
      "type": "function"
    },
    {
      "inputs": [],
      "name": "paused",
      "outputs": [
        {
          "internalType": "bool",
          "name": "",
          "type": "bool"
        }
      ],
      "stateMutability": "view",
      "type": "function"
    },
    {
      "inputs": [
        {
          "internalType": "uint256",
          "name": "denominator",
          "type": "uint256"
        }
      ],
      "name": "removeLiquidity",
      "outputs": [
        {
          "internalType": "uint256",
          "name": "amountX",
          "type": "uint256"
        },
        {
          "internalType": "uint256",
          "name": "amountY",
          "type": "uint256"
        }
      ],
      "stateMutability": "nonpayable",
      "type": "function"
    },
    {
      "inputs": [
        {
          "internalType": "address",
          "name": "token",
          "type": "address"
        }
      ],
      "name": "removeTokens",
      "outputs": [],
      "stateMutability": "nonpayable",
      "type": "function"
    },
    {
      "inputs": [],
      "name": "renounceOwnership",
      "outputs": [],
      "stateMutability": "nonpayable",
      "type": "function"
    },
    {
      "inputs": [],
      "name": "retireStrat",
      "outputs": [],
      "stateMutability": "nonpayable",
      "type": "function"
    },
    {
      "inputs": [
        {
          "internalType": "uint256[]",
          "name": "_increasingBinIds",
          "type": "uint256[]"
        }
      ],
      "name": "rewardsAvailable",
      "outputs": [
        {
          "internalType": "uint256",
          "name": "rewardsX",
          "type": "uint256"
        },
        {
          "internalType": "uint256",
          "name": "rewardsY",
          "type": "uint256"
        }
      ],
      "stateMutability": "view",
      "type": "function"
    },
    {
      "inputs": [
        {
          "internalType": "address",
          "name": "_joeRouter",
          "type": "address"
        }
      ],
      "name": "setJoeRouter",
      "outputs": [],
      "stateMutability": "nonpayable",
      "type": "function"
    },
    {
      "inputs": [
        {
          "internalType": "address",
          "name": "_keeper",
          "type": "address"
        }
      ],
      "name": "setKeeper",
      "outputs": [],
      "stateMutability": "nonpayable",
      "type": "function"
    },
    {
      "inputs": [],
      "name": "strategyActiveBins",
      "outputs": [
        {
          "internalType": "uint256[]",
          "name": "activeBins",
          "type": "uint256[]"
        }
      ],
      "stateMutability": "view",
      "type": "function"
    },
    {
      "inputs": [
        {
          "internalType": "uint256",
          "name": "_index",
          "type": "uint256"
        }
      ],
      "name": "strategyPositionAtIndex",
      "outputs": [
        {
          "internalType": "uint256",
          "name": "",
          "type": "uint256"
        }
      ],
      "stateMutability": "view",
      "type": "function"
    },
    {
      "inputs": [],
      "name": "strategyPositionNumber",
      "outputs": [
        {
          "internalType": "uint256",
          "name": "",
          "type": "uint256"
        }
      ],
      "stateMutability": "view",
      "type": "function"
    },
    {
      "inputs": [
        {
          "internalType": "bytes4",
          "name": "_interfaceId",
          "type": "bytes4"
        }
      ],
      "name": "supportsInterface",
      "outputs": [
        {
          "internalType": "bool",
          "name": "",
          "type": "bool"
        }
      ],
      "stateMutability": "pure",
      "type": "function"
    },
    {
      "inputs": [],
      "name": "tokenX",
      "outputs": [
        {
          "internalType": "contract IERC20",
          "name": "",
          "type": "address"
        }
      ],
      "stateMutability": "view",
      "type": "function"
    },
    {
      "inputs": [],
      "name": "tokenY",
      "outputs": [
        {
          "internalType": "contract IERC20",
          "name": "",
          "type": "address"
        }
      ],
      "stateMutability": "view",
      "type": "function"
    },
    {
      "inputs": [
        {
          "internalType": "address",
          "name": "newOwner",
          "type": "address"
        }
      ],
      "name": "transferOwnership",
      "outputs": [],
      "stateMutability": "nonpayable",
      "type": "function"
    },
    {
      "inputs": [],
      "name": "unpause",
      "outputs": [],
      "stateMutability": "nonpayable",
      "type": "function"
    },
    {
      "inputs": [],
      "name": "vault",
      "outputs": [
        {
          "internalType": "address",
          "name": "",
          "type": "address"
        }
      ],
      "stateMutability": "view",
      "type": "function"
    }
  ],
  "transactionHash": "0x2553f66eab291541e4f7d1d771f623a288c64f8215590ceda09fd55d6960c048",
  "args": [
    "0xE3Ffc583dC176575eEA7FD9dF2A7c65F7E23f4C3",
    "0xBE15BC0A3e37F1A3445DEfb4F0FF6eba0E4F19E2",
    "0x717955905bf71b84651f4eD75AAC4C6A4b33b410",
    [
      "0xB31f66AA3C1e785363F0875A1B74E27b85FD66c7",
      "0xB97EF9Ef8734C71904D8002F8b6Bc66Dd9c48a6E",
      "0xB5352A39C11a81FE6748993D586EC448A01f08b5",
      20,
      [
        -35,
        -29,
        -26,
        -21,
        -18,
        -15,
        -9,
        -6,
        -3,
        0,
        3,
        6,
        9,
        15,
        18,
        21,
        26,
        29,
        35
      ],
      [
        0,
        0,
        0,
        0,
        0,
        0,
        0,
        0,
        0,
        "100000000000000000",
        "100000000000000000",
        "100000000000000000",
        "100000000000000000",
        "100000000000000000",
        "100000000000000000",
        "100000000000000000",
        "100000000000000000",
        "100000000000000000",
        "100000000000000000"
      ],
      [
        "100000000000000000",
        "100000000000000000",
        "100000000000000000",
        "100000000000000000",
        "100000000000000000",
        "100000000000000000",
        "100000000000000000",
        "100000000000000000",
        "100000000000000000",
        "100000000000000000",
        0,
        0,
        0,
        0,
        0,
        0,
        0,
        0,
        0
      ],
      1
    ]
  ],
  "numDeployments": 1,
  "solcInputHash": "b51c85b2a0d89b6c122af7f8ed7f2234",
  "bytecode": "0x6101406040523480156200001257600080fd5b506040516200531b3803806200531b833981016040819052620000359162000a53565b828483620000433362000243565b6000805460ff60a01b19169055600180546001600160a01b03199081166001600160a01b0395861617909155600280549091169284169290921790915516608090815281015151603211620000df5760405162461bcd60e51b815260206004820152601760248201527f53747261746567793a20546f6f206d616e792062696e7300000000000000000060448201526064015b60405180910390fd5b8060a00151518160800151511480156200010257508060c00151518160a0015151145b620001505760405162461bcd60e51b815260206004820152601b60248201527f53747261746567793a20556e62616c616e63656420706172616d7300000000006044820152606401620000d6565b6080810151620001609062000293565b15620001765760a08101516200017690620002eb565b6080810151620001869062000396565b156200019c5760c08101516200019c90620002eb565b80516001600160a01b0390811660a052602080830151821660c052604083018051831660e0525190911661010052606082015161ffff166101205260808201518051620001ee926004920190620008d3565b5060e081015160075560a081015180516200021291600591602090910190620008d3565b5060c081015180516200022e91600691602090910190620008d3565b5062000239620003e8565b5050505062000cd1565b600080546001600160a01b038381166001600160a01b0319831681178455604051919092169283917f8be0079c531659141344cd1fd0a4f28419497f9722a3daafe3b4186f6b6457e09190a35050565b6000805b8251811015620002e5576000838281518110620002b857620002b862000baf565b602002602001015112620002d05760019150620002e5565b80620002dc8162000bdb565b91505062000297565b50919050565b6000805b825181101562000338578281815181106200030e576200030e62000baf565b60200260200101518262000323919062000bf7565b9150620003308162000bdb565b9050620002ef565b50670de0b6b3a76400008114620003925760405162461bcd60e51b815260206004820181905260248201527f53747261746567793a20446973747269627574696f6e20696e636f72726563746044820152606401620000d6565b5050565b6000805b8251811015620002e5576000838281518110620003bb57620003bb62000baf565b602002602001015113620003d35760019150620002e5565b80620003df8162000bdb565b9150506200039a565b60025460a0516000199162000417916001600160a01b0390811691168362000502602090811b62001bb417901c565b60025460c05162000442916001600160a01b0391821691168362000502602090811b62001bb417901c565b6200046b6080518260a0516001600160a01b03166200050260201b62001bb4179092919060201c565b620004946080518260c0516001600160a01b03166200050260201b62001bb4179092919060201c565b6101005160025460405163a22cb46560e01b81526001600160a01b0391821660048201526001602482015291169063a22cb46590604401600060405180830381600087803b158015620004e657600080fd5b505af1158015620004fb573d6000803e3d6000fd5b5050505050565b801580620005805750604051636eb1769f60e11b81523060048201526001600160a01b03838116602483015284169063dd62ed3e90604401602060405180830381865afa15801562000558573d6000803e3d6000fd5b505050506040513d601f19601f820116820180604052508101906200057e919062000c13565b155b620005f45760405162461bcd60e51b815260206004820152603660248201527f5361666545524332303a20617070726f76652066726f6d206e6f6e2d7a65726f60448201527f20746f206e6f6e2d7a65726f20616c6c6f77616e6365000000000000000000006064820152608401620000d6565b604080516001600160a01b038416602482015260448082018490528251808303909101815260649091019091526020810180516001600160e01b0390811663095ea7b360e01b179091526200064c9185916200065116565b505050565b6000620006ad826040518060400160405280602081526020017f5361666545524332303a206c6f772d6c6576656c2063616c6c206661696c6564815250856001600160a01b03166200072f60201b62001d4a179092919060201c565b8051909150156200064c5780806020019051810190620006ce919062000c2d565b6200064c5760405162461bcd60e51b815260206004820152602a60248201527f5361666545524332303a204552433230206f7065726174696f6e20646964206e6044820152691bdd081cdd58d8d9595960b21b6064820152608401620000d6565b606062000740848460008562000748565b949350505050565b606082471015620007ab5760405162461bcd60e51b815260206004820152602660248201527f416464726573733a20696e73756666696369656e742062616c616e636520666f6044820152651c8818d85b1b60d21b6064820152608401620000d6565b600080866001600160a01b03168587604051620007c9919062000c7e565b60006040518083038185875af1925050503d806000811462000808576040519150601f19603f3d011682016040523d82523d6000602084013e6200080d565b606091505b50909250905062000821878383876200082c565b979650505050505050565b60608315620008a057825160000362000898576001600160a01b0385163b620008985760405162461bcd60e51b815260206004820152601d60248201527f416464726573733a2063616c6c20746f206e6f6e2d636f6e74726163740000006044820152606401620000d6565b508162000740565b620007408383815115620008b75781518083602001fd5b8060405162461bcd60e51b8152600401620000d6919062000c9c565b82805482825590600052602060002090810192821562000911579160200282015b8281111562000911578251825591602001919060010190620008f4565b506200091f92915062000923565b5090565b5b808211156200091f576000815560010162000924565b6001600160a01b03811681146200095057600080fd5b50565b805162000960816200093a565b919050565b634e487b7160e01b600052604160045260246000fd5b60405161010081016001600160401b0381118282101715620009a157620009a162000965565b60405290565b805161ffff811681146200096057600080fd5b600082601f830112620009cc57600080fd5b815160206001600160401b0380831115620009eb57620009eb62000965565b8260051b604051601f19603f8301168101818110848211171562000a135762000a1362000965565b60405293845285810183019383810192508785111562000a3257600080fd5b83870191505b84821015620008215781518352918301919083019062000a38565b6000806000806080858703121562000a6a57600080fd5b845162000a77816200093a565b602086015190945062000a8a816200093a565b604086015190935062000a9d816200093a565b60608601519092506001600160401b038082111562000abb57600080fd5b90860190610100828903121562000ad157600080fd5b62000adb6200097b565b62000ae68362000953565b815262000af66020840162000953565b602082015262000b096040840162000953565b604082015262000b1c60608401620009a7565b606082015260808301518281111562000b3457600080fd5b62000b428a828601620009ba565b60808301525060a08301518281111562000b5b57600080fd5b62000b698a828601620009ba565b60a08301525060c08301518281111562000b8257600080fd5b62000b908a828601620009ba565b60c08301525060e083015160e082015280935050505092959194509250565b634e487b7160e01b600052603260045260246000fd5b634e487b7160e01b600052601160045260246000fd5b60006001820162000bf05762000bf062000bc5565b5060010190565b8082018082111562000c0d5762000c0d62000bc5565b92915050565b60006020828403121562000c2657600080fd5b5051919050565b60006020828403121562000c4057600080fd5b8151801515811462000c5157600080fd5b9392505050565b60005b8381101562000c7557818101518382015260200162000c5b565b50506000910152565b6000825162000c9281846020870162000c58565b9190910192915050565b602081526000825180602084015262000cbd81604085016020870162000c58565b601f01601f19169190910160400192915050565b60805160a05160c05160e051610100516101205161448062000e9b600039600081816105710152818161267001528181612f5101526138bc01526000818161038501528181611f5b01528181612297015281816124460152818161250e01526129a801526000818161045a015281816108c101528181610a520152818161239201528181612db6015261352e01526000818161052f015281816109b701528181610c6b01528181610f5c015281816114a9015281816118c301528181611a2d01528181611e6101528181611eeb0152818161264e015281816128ab0152818161293701528181612ae101528181612d2901528181612f220152818161379801526137f10152600081816103250152818161079e0152818161097101528181610edc015281816114130152818161182d0152818161197701528181611e2701528181611e970152818161262c01528181612870015281816128e201528181612b9b01528181612c9e01528181612ef30152818161374401526138450152600081816105f2015281816111e80152818161176d01528181611945015281816119fe01528181611b3301528181611eb901528181611f0d01528181612904015261295901526144806000f3fe608060405234801561001057600080fd5b50600436106102de5760003560e01c80637d3db06711610186578063b86e9b8a116100e3578063d9c3ac3c11610097578063fb61778711610071578063fb617787146105e5578063fbfa77cf146105ed578063fc50baf51461061457600080fd5b8063d9c3ac3c146105b6578063f1a392da146105c9578063f2fde38b146105d257600080fd5b8063c5bf3832116100c8578063c5bf38321461056c578063d389800f146105a6578063d69d1dac146105ae57600080fd5b8063b86e9b8a14610551578063c4a7761e1461056457600080fd5b80639bb71aef1161013a578063a808ac661161011f578063a808ac6614610502578063aced166114610517578063b7d19fc41461052a57600080fd5b80639bb71aef146104e75780639c8f9f23146104ef57600080fd5b80638afe5a6d1161016b5780638afe5a6d146104ba5780638befcc6f146104cd5780638da5cb5b146104d657600080fd5b80637d3db067146104aa5780638456cb59146104b257600080fd5b80634641257d1161023f5780635bbe5e10116101f3578063651f1c7b116101cd578063651f1c7b1461047c578063715018a61461048f578063748747e61461049757600080fd5b80635bbe5e10146104305780635c975abb14610443578063625af7671461045557600080fd5b80634700d305116102245780634700d30514610415578063573fef0a1461031e57806359f571e81461041d57600080fd5b80634641257d146103fa57806346e9bfdb1461040257600080fd5b806338a26bfb116102965780633ec4515d1161027b5780633ec4515d146103c25780633f4ba83a146103ca57806343c23620146103d257600080fd5b806338a26bfb146103a75780633b6bc1a7146103ba57600080fd5b806316dc165b116102c757806316dc165b14610320578063221918661461035f57806334f1f9b11461038057600080fd5b806301ffc9a7146102e3578063026b49a71461030b575b600080fd5b6102f66102f1366004613cd3565b610627565b60405190151581526020015b60405180910390f35b61031e610319366004613cfd565b610690565b005b6103477f000000000000000000000000000000000000000000000000000000000000000081565b6040516001600160a01b039091168152602001610302565b61037261036d366004613d26565b610755565b604051908152602001610302565b6103477f000000000000000000000000000000000000000000000000000000000000000081565b6103726103b5366004613d26565b610776565b610372610786565b610372610817565b61031e610823565b6103e56103e0366004613e15565b61083d565b60408051928352602083019190915201610302565b6103e5610942565b6102f6610410366004613e15565b6109e2565b61031e610a31565b600254610347906001600160a01b031681565b61037261043e366004613d26565b610aa6565b600054600160a01b900460ff166102f6565b6103477f000000000000000000000000000000000000000000000000000000000000000081565b61037261048a366004613e4a565b610ab3565b61031e610b36565b61031e6104a5366004613cfd565b610b48565b610372610c53565b61031e610ca2565b6103e56104c8366004613e8f565b610cba565b61037260075481565b6000546001600160a01b0316610347565b6103e561105e565b6103e56104fd366004613d26565b6111da565b61050a61125e565b6040516103029190613f5a565b600154610347906001600160a01b031681565b6103477f000000000000000000000000000000000000000000000000000000000000000081565b6102f661055f366004613e15565b6112fd565b6103e5611346565b6105937f000000000000000000000000000000000000000000000000000000000000000081565b60405161ffff9091168152602001610302565b6103e5611386565b61050a611622565b6103726105c4366004613d26565b6116c2565b61037260035481565b61031e6105e0366004613cfd565b6116d2565b61031e611762565b6103477f000000000000000000000000000000000000000000000000000000000000000081565b61031e610622366004613cfd565b611aa1565b60006001600160e01b031982167fdfad3d8c00000000000000000000000000000000000000000000000000000000148061068a57506001600160e01b031982167f01ffc9a700000000000000000000000000000000000000000000000000000000145b92915050565b610698611d59565b6001600160a01b0381166106f35760405162461bcd60e51b815260206004820152601760248201527f53747261744d616e616765723a2030206164647265737300000000000000000060448201526064015b60405180910390fd5b6002805473ffffffffffffffffffffffffffffffffffffffff19166001600160a01b0383169081179091556040519081527fa74fa1653ae077d0f95003e851b92a7526da5053b12a1e052f360333fb49cb80906020015b60405180910390a150565b6004818154811061076557600080fd5b600091825260209091200154905081565b6006818154811061076557600080fd5b6040516370a0823160e01b81523060048201526000907f00000000000000000000000000000000000000000000000000000000000000006001600160a01b0316906370a08231906024015b602060405180830381865afa1580156107ee573d6000803e3d6000fd5b505050506040513d601f19601f820116820180604052508101906108129190613f6d565b905090565b60006108126008611db3565b61082b611d59565b610833611dbd565b61083b611e12565b565b60008060008351116108915760405162461bcd60e51b815260206004820152601760248201527f53747261743a20537570706c792076616c69642069647300000000000000000060448201526064016106ea565b6040517ff7cff1f80000000000000000000000000000000000000000000000000000000081526001600160a01b037f0000000000000000000000000000000000000000000000000000000000000000169063f7cff1f8906108f89030908790600401613f86565b6040805180830381865afa158015610914573d6000803e3d6000fd5b505050506040513d601f19601f820116820180604052508101906109389190613fa8565b9094909350915050565b60008061094d611fb5565b90925090506109986109676000546001600160a01b031690565b6001600160a01b037f0000000000000000000000000000000000000000000000000000000000000000169084611fcd565b6109de6109ad6000546001600160a01b031690565b6001600160a01b037f0000000000000000000000000000000000000000000000000000000000000000169083611fcd565b9091565b6000805b8251811015610a2b576000838281518110610a0357610a03613fcc565b602002602001015112610a195760019150610a2b565b80610a2381613ff8565b9150506109e6565b50919050565b610a39611d59565b610a41610ca2565b600080610a7630610a50611622565b7f0000000000000000000000000000000000000000000000000000000000000000611ffd565b915091506000821180610a895750600081115b15610aa257610a9f670de0b6b3a764000061222c565b50505b5050565b600061068a600883612794565b60008060005b8451811015610b1b576000858281518110610ad657610ad6613fcc565b602002602001015185610ae99190614011565b9050610af66008826127a7565b610b0857610b05600184614039565b92505b5080610b1381613ff8565b915050610ab9565b50610b24610817565b610b2e9082614039565b949350505050565b610b3e611d59565b61083b60006127bf565b6000546001600160a01b0316331480610b6b57506001546001600160a01b031633145b610ba25760405162461bcd60e51b815260206004820152600860248201526710b6b0b730b3b2b960c11b60448201526064016106ea565b6001600160a01b038116610bf85760405162461bcd60e51b815260206004820152601760248201527f53747261744d616e616765723a2030206164647265737300000000000000000060448201526064016106ea565b6001805473ffffffffffffffffffffffffffffffffffffffff19166001600160a01b0383169081179091556040519081527fefb5cfa1a8690c124332ab93324539c5c9c4be03f28aeb8be86f2d8a0c9fb99b9060200161074a565b6040516370a0823160e01b81523060048201526000907f00000000000000000000000000000000000000000000000000000000000000006001600160a01b0316906370a08231906024016107d1565b610caa611d59565b610cb261281c565b61083b61285f565b600080610ccf6000546001600160a01b031690565b6001600160a01b0316336001600160a01b03161480610cf857506001546001600160a01b031633145b610d2f5760405162461bcd60e51b815260206004820152600860248201526710b6b0b730b3b2b960c11b60448201526064016106ea565b6032865110610da65760405162461bcd60e51b815260206004820152602660248201527f53747261746567793a2042696e73207368616c6c206265206c696d697465642060448201527f746f203c3530000000000000000000000000000000000000000000000000000060648201526084016106ea565b84518651148015610db8575083518551145b610e045760405162461bcd60e51b815260206004820152601b60248201527f53747261746567793a20556e62616c616e63656420706172616d73000000000060448201526064016106ea565b610e0d866109e2565b15610e1b57610e1b85612a02565b610e24866112fd565b15610e3257610e3284612a02565b600080610e3d611346565b915091506000610e4b610817565b1115610e6557610e62670de0b6b3a764000061222c565b50505b8751610e789060049060208b0190613c7c565b508651610e8c9060059060208a0190613c7c565b508551610ea0906006906020890190613c7c565b50600785905581151580610eb45750600081115b15610fda576040516370a0823160e01b8152306004820152610fd49089906001600160a01b037f000000000000000000000000000000000000000000000000000000000000000016906370a0823190602401602060405180830381865afa158015610f23573d6000803e3d6000fd5b505050506040513d601f19601f82011682018060405250810190610f479190613f6d565b6040516370a0823160e01b81523060048201527f00000000000000000000000000000000000000000000000000000000000000006001600160a01b0316906370a0823190602401602060405180830381865afa158015610fab573d6000803e3d6000fd5b505050506040513d601f19601f82011682018060405250810190610fcf9190613f6d565b612a9e565b90945092505b6000841180610fe95750600083115b15610ffe57610ffb8484600080612da7565b50505b611006611346565b60408051858152602081018590529081018390526060810182905291955093507f802a0d65ee1ffb3e6af96deafe1fc3e6402b2672a2f4b79d1b23c4a06c998f349060800160405180910390a1505094509492505050565b6000806110736000546001600160a01b031690565b6001600160a01b0316336001600160a01b0316148061109c57506001546001600160a01b031633145b6110d35760405162461bcd60e51b815260206004820152600860248201526710b6b0b730b3b2b960c11b60448201526064016106ea565b6111d1600480548060200260200160405190810160405280929190818152602001828054801561112257602002820191906000526020600020905b81548152602001906001019080831161110e575b5050505050600580548060200260200160405190810160405280929190818152602001828054801561117357602002820191906000526020600020905b81548152602001906001019080831161115f575b505050505060068054806020026020016040519081016040528092919081815260200182805480156111c457602002820191906000526020600020905b8154815260200190600101908083116111b0575b5050505050600754610cba565b90939092509050565b600080336001600160a01b037f000000000000000000000000000000000000000000000000000000000000000016146112555760405162461bcd60e51b815260206004820152601060248201527f53747261746567793a20217661756c740000000000000000000000000000000060448201526064016106ea565b6109388361222c565b6060600061126a610817565b90508067ffffffffffffffff81111561128557611285613d3f565b6040519080825280602002602001820160405280156112ae578160200160208202803683370190505b50915060005b818110156112f85760006112c782610aa6565b9050808483815181106112dc576112dc613fcc565b6020908102919091010152506112f181613ff8565b90506112b4565b505090565b6000805b8251811015610a2b57600083828151811061131e5761131e613fcc565b6020026020010151136113345760019150610a2b565b8061133e81613ff8565b915050611301565b60008061135530610a50611622565b9092509050611362610786565b61136c9083614039565b9150611376610c53565b6113809082614039565b90509091565b60008061139b6000546001600160a01b031690565b6001600160a01b0316336001600160a01b031614806113c457506001546001600160a01b031633145b6113fb5760405162461bcd60e51b815260206004820152600860248201526710b6b0b730b3b2b960c11b60448201526064016106ea565b6040516370a0823160e01b81523060048201526000907f00000000000000000000000000000000000000000000000000000000000000006001600160a01b0316906370a0823190602401602060405180830381865afa158015611462573d6000803e3d6000fd5b505050506040513d601f19601f820116820180604052508101906114869190613f6d565b6040516370a0823160e01b81523060048201529091506000906001600160a01b037f000000000000000000000000000000000000000000000000000000000000000016906370a0823190602401602060405180830381865afa1580156114f0573d6000803e3d6000fd5b505050506040513d601f19601f820116820180604052508101906115149190613f6d565b90506103e882118061152757506103e881115b6115995760405162461bcd60e51b815260206004820152602a60248201527f5661756c743a20496e73756666696369656e742069646c652066756e6473206960448201527f6e2073747261746567790000000000000000000000000000000000000000000060648201526084016106ea565b6115f460048054806020026020016040519081016040528092919081815260200182805480156115e857602002820191906000526020600020905b8154815260200190600101908083116115d4575b50505050508383612a9e565b9094509250831515806116075750600083115b1561161c576116198484600080612da7565b50505b50509091565b606061162e6008611db3565b67ffffffffffffffff81111561164657611646613d3f565b60405190808252806020026020018201604052801561166f578160200160208202803683370190505b50905060005b61167f6008611db3565b8110156116be5761168f81610aa6565b8282815181106116a1576116a1613fcc565b6020908102919091010152806116b681613ff8565b915050611675565b5090565b6005818154811061076557600080fd5b6116da611d59565b6001600160a01b0381166117565760405162461bcd60e51b815260206004820152602660248201527f4f776e61626c653a206e6577206f776e657220697320746865207a65726f206160448201527f646472657373000000000000000000000000000000000000000000000000000060648201526084016106ea565b61175f816127bf565b50565b336001600160a01b037f000000000000000000000000000000000000000000000000000000000000000016146117da5760405162461bcd60e51b815260206004820152600660248201527f217661756c74000000000000000000000000000000000000000000000000000060448201526064016106ea565b6000806117e930610a50611622565b9150915060008211806117fc5750600081115b1561181557611812670de0b6b3a764000061222c565b50505b6040516370a0823160e01b81523060048201526000907f00000000000000000000000000000000000000000000000000000000000000006001600160a01b0316906370a0823190602401602060405180830381865afa15801561187c573d6000803e3d6000fd5b505050506040513d601f19601f820116820180604052508101906118a09190613f6d565b6040516370a0823160e01b81523060048201529091506000906001600160a01b037f000000000000000000000000000000000000000000000000000000000000000016906370a0823190602401602060405180830381865afa15801561190a573d6000803e3d6000fd5b505050506040513d601f19601f8201168201806040525081019061192e9190613f6d565b60405163a9059cbb60e01b81526001600160a01b037f000000000000000000000000000000000000000000000000000000000000000081166004830152602482018590529192507f00000000000000000000000000000000000000000000000000000000000000009091169063a9059cbb906044016020604051808303816000875af11580156119c2573d6000803e3d6000fd5b505050506040513d601f19601f820116820180604052508101906119e6919061404c565b5060405163a9059cbb60e01b81526001600160a01b037f000000000000000000000000000000000000000000000000000000000000000081166004830152602482018390527f0000000000000000000000000000000000000000000000000000000000000000169063a9059cbb906044016020604051808303816000875af1158015611a76573d6000803e3d6000fd5b505050506040513d601f19601f82011682018060405250810190611a9a919061404c565b5050505050565b611aa9611d59565b6040516370a0823160e01b81523060048201526000906001600160a01b038316906370a0823190602401602060405180830381865afa158015611af0573d6000803e3d6000fd5b505050506040513d601f19601f82011682018060405250810190611b149190613f6d565b90508015610aa25760405163a9059cbb60e01b81526001600160a01b037f0000000000000000000000000000000000000000000000000000000000000000811660048301526024820183905283169063a9059cbb906044016020604051808303816000875af1158015611b8b573d6000803e3d6000fd5b505050506040513d601f19601f82011682018060405250810190611baf919061404c565b505050565b801580611c4757506040517fdd62ed3e0000000000000000000000000000000000000000000000000000000081523060048201526001600160a01b03838116602483015284169063dd62ed3e90604401602060405180830381865afa158015611c21573d6000803e3d6000fd5b505050506040513d601f19601f82011682018060405250810190611c459190613f6d565b155b611cb95760405162461bcd60e51b815260206004820152603660248201527f5361666545524332303a20617070726f76652066726f6d206e6f6e2d7a65726f60448201527f20746f206e6f6e2d7a65726f20616c6c6f77616e63650000000000000000000060648201526084016106ea565b6040516001600160a01b038316602482015260448101829052611baf9084907f095ea7b300000000000000000000000000000000000000000000000000000000906064015b60408051601f198184030181529190526020810180517bffffffffffffffffffffffffffffffffffffffffffffffffffffffff166001600160e01b0319909316929092179091526132af565b6060610b2e8484600085613394565b6000546001600160a01b0316331461083b5760405162461bcd60e51b815260206004820181905260248201527f4f776e61626c653a2063616c6c6572206973206e6f7420746865206f776e657260448201526064016106ea565b600061068a825490565b611dc5613486565b6000805460ff60a01b191690557f5db9ee0a495bf2e6ff9c91a7834c1ba4fdd244a5e8aa4e537bd38aeae4b073aa335b6040516001600160a01b03909116815260200160405180910390a1565b60025460001990611e50906001600160a01b037f00000000000000000000000000000000000000000000000000000000000000008116911683611bb4565b600254611e8a906001600160a01b037f00000000000000000000000000000000000000000000000000000000000000008116911683611bb4565b611ede6001600160a01b037f0000000000000000000000000000000000000000000000000000000000000000167f000000000000000000000000000000000000000000000000000000000000000083611bb4565b611f326001600160a01b037f0000000000000000000000000000000000000000000000000000000000000000167f000000000000000000000000000000000000000000000000000000000000000083611bb4565b60025460405163a22cb46560e01b81526001600160a01b039182166004820152600160248201527f00000000000000000000000000000000000000000000000000000000000000009091169063a22cb46590604401600060405180830381600087803b158015611fa157600080fd5b505af1158015611a9a573d6000803e3d6000fd5b600080611fc06134df565b4260035590939092509050565b6040516001600160a01b038316602482015260448101829052611baf90849063a9059cbb60e01b90606401611cfe565b60008060005b845181101561222357600061203086838151811061202357612023613fcc565b6020026020010151613616565b6040517efdd58e0000000000000000000000000000000000000000000000000000000081526001600160a01b03898116600483015262ffffff8316602483015291925060009187169062fdd58e90604401602060405180830381865afa15801561209e573d6000803e3d6000fd5b505050506040513d601f19601f820116820180604052508101906120c29190613f6d565b6040517f0abe968800000000000000000000000000000000000000000000000000000000815262ffffff8416600482015290915060009081906001600160a01b03891690630abe9688906024016040805180830381865afa15801561212b573d6000803e3d6000fd5b505050506040513d601f19601f8201168201806040525081019061214f9190613fa8565b6040517fbd85b03900000000000000000000000000000000000000000000000000000000815262ffffff8716600482015291935091506000906001600160a01b038a169063bd85b03990602401602060405180830381865afa1580156121b9573d6000803e3d6000fd5b505050506040513d601f19601f820116820180604052508101906121dd9190613f6d565b90506121ea84848361365d565b6121f49089614039565b975061220184838361365d565b61220b9088614039565b965050505050508061221c90613ff8565b9050612003565b50935093915050565b600080600061223961125e565b90506000815167ffffffffffffffff81111561225757612257613d3f565b604051908082528060200260200182016040528015612280578160200160208202803683370190505b50905060008060005b84518110156125ea576000887f00000000000000000000000000000000000000000000000000000000000000006001600160a01b031662fdd58e308986815181106122d6576122d6613fcc565b60200260200101516040518363ffffffff1660e01b815260040161230f9291906001600160a01b03929092168252602082015260400190565b602060405180830381865afa15801561232c573d6000803e3d6000fd5b505050506040513d601f19601f820116820180604052508101906123509190613f6d565b61236290670de0b6b3a764000061406e565b61236c919061409b565b90508085838151811061238157612381613fcc565b6020026020010181815250506000807f00000000000000000000000000000000000000000000000000000000000000006001600160a01b0316630abe96888986815181106123d1576123d1613fcc565b60200260200101516040518263ffffffff1660e01b8152600401612400919062ffffff91909116815260200190565b6040805180830381865afa15801561241c573d6000803e3d6000fd5b505050506040513d601f19601f820116820180604052508101906124409190613fa8565b915091507f00000000000000000000000000000000000000000000000000000000000000006001600160a01b031663bd85b03989868151811061248557612485613fcc565b60200260200101516040518263ffffffff1660e01b81526004016124ab91815260200190565b602060405180830381865afa1580156124c8573d6000803e3d6000fd5b505050506040513d601f19601f820116820180604052508101906124ec9190613f6d565b6124f6838561406e565b612500919061409b565b61250a9087614039565b95507f00000000000000000000000000000000000000000000000000000000000000006001600160a01b031663bd85b03989868151811061254d5761254d613fcc565b60200260200101516040518263ffffffff1660e01b815260040161257391815260200190565b602060405180830381865afa158015612590573d6000803e3d6000fd5b505050506040513d601f19601f820116820180604052508101906125b49190613f6d565b6125be828561406e565b6125c8919061409b565b6125d29086614039565b945050505080806125e290613ff8565b915050612289565b506002546040517fc22159b60000000000000000000000000000000000000000000000000000000081526001600160a01b039091169063c22159b6906126a5907f0000000000000000000000000000000000000000000000000000000000000000907f0000000000000000000000000000000000000000000000000000000000000000907f00000000000000000000000000000000000000000000000000000000000000009060009081908c908c90309042906004016140bd565b60408051808303816000875af11580156126c3573d6000803e3d6000fd5b505050506040513d601f19601f820116820180604052508101906126e79190613fa8565b9096509450670de0b6b3a763ffff19870161274a5760005b84518110156127485761273585828151811061271d5761271d613fcc565b6020026020010151600861368790919063ffffffff16565b508061274081613ff8565b9150506126ff565b505b60408051338152602081018890529081018690527f0fbf06c058b90cb038a618f8c2acbf6145f8b3570fd1fa56abb8f0f3f05b36e89060600160405180910390a150505050915091565b60006127a08383613693565b9392505050565b600081815260018301602052604081205415156127a0565b600080546001600160a01b0383811673ffffffffffffffffffffffffffffffffffffffff19831681178455604051919092169283917f8be0079c531659141344cd1fd0a4f28419497f9722a3daafe3b4186f6b6457e09190a35050565b6128246136bd565b6000805460ff60a01b1916600160a01b1790557f62e78cea01bee320cd4e420270b5ea74000d11b0c9f74754ebdbfc544b05a258611df53390565b60025461289a906001600160a01b037f0000000000000000000000000000000000000000000000000000000000000000811691166000611bb4565b6002546128d5906001600160a01b037f0000000000000000000000000000000000000000000000000000000000000000811691166000611bb4565b61292a6001600160a01b037f0000000000000000000000000000000000000000000000000000000000000000167f00000000000000000000000000000000000000000000000000000000000000006000611bb4565b61297f6001600160a01b037f0000000000000000000000000000000000000000000000000000000000000000167f00000000000000000000000000000000000000000000000000000000000000006000611bb4565b60025460405163a22cb46560e01b81526001600160a01b039182166004820152600060248201527f00000000000000000000000000000000000000000000000000000000000000009091169063a22cb46590604401600060405180830381600087803b1580156129ee57600080fd5b505af1158015610a9f573d6000803e3d6000fd5b6000805b8251811015612a4657828181518110612a2157612a21613fcc565b602002602001015182612a349190614039565b9150612a3f81613ff8565b9050612a06565b50670de0b6b3a76400008114610aa25760405162461bcd60e51b815260206004820181905260248201527f53747261746567793a20446973747269627574696f6e20696e636f727265637460448201526064016106ea565b600080612aaa856109e2565b158015612abb5750612abb856112fd565b15612b5b57612acb846001613717565b506040516370a0823160e01b81523060048201527f00000000000000000000000000000000000000000000000000000000000000006001600160a01b0316906370a0823190602401602060405180830381865afa158015612b30573d6000803e3d6000fd5b505050506040513d601f19601f82011682018060405250810190612b549190613f6d565b9050600091505b612b64856112fd565b158015612b755750612b75856109e2565b15612c1557612b85836000613717565b506040516370a0823160e01b81523060048201527f00000000000000000000000000000000000000000000000000000000000000006001600160a01b0316906370a0823190602401602060405180830381865afa158015612bea573d6000803e3d6000fd5b505050506040513d601f19601f82011682018060405250810190612c0e9190613f6d565b9150600090505b612c1e856112fd565b8015612c2e5750612c2e856109e2565b15612d9f5783600003612c5e57612c5c6064612c4b85600161406e565b612c55919061409b565b6000613717565b505b82600003612c8957612c876064612c7686600161406e565b612c80919061409b565b6001613717565b505b6040516370a0823160e01b81523060048201527f00000000000000000000000000000000000000000000000000000000000000006001600160a01b0316906370a0823190602401602060405180830381865afa158015612ced573d6000803e3d6000fd5b505050506040513d601f19601f82011682018060405250810190612d119190613f6d565b6040516370a0823160e01b81523060048201529092507f00000000000000000000000000000000000000000000000000000000000000006001600160a01b0316906370a0823190602401602060405180830381865afa158015612d78573d6000803e3d6000fd5b505050506040513d601f19601f82011682018060405250810190612d9c9190613f6d565b90505b935093915050565b606080612db26136bd565b60007f00000000000000000000000000000000000000000000000000000000000000006001600160a01b0316631b05b83e6040518163ffffffff1660e01b8152600401606060405180830381865afa158015612e12573d6000803e3d6000fd5b505050506040513d601f19601f82011682018060405250810190612e36919061412c565b925050506032612e966004805480602002602001604051908101604052809291908181526020018280548015612e8b57602002820191906000526020600020905b815481526020019060010190808311612e77575b505050505083610ab3565b10612ee35760405162461bcd60e51b815260206004820152601c60248201527f53747261746567793a20526571756972657320526562616c616e63650000000060448201526064016106ea565b6000604051806101c001604052807f00000000000000000000000000000000000000000000000000000000000000006001600160a01b031681526020017f00000000000000000000000000000000000000000000000000000000000000006001600160a01b031681526020017f000000000000000000000000000000000000000000000000000000000000000061ffff16815260200189815260200188815260200187815260200186815260200183815260200160075481526020016004805480602002602001604051908101604052809291908181526020018280548015612feb57602002820191906000526020600020905b815481526020019060010190808311612fd7575b50505050508152602001600580548060200260200160405190810160405280929190818152602001828054801561304157602002820191906000526020600020905b81548152602001906001019080831161302d575b50505050508152602001600680548060200260200160405190810160405280929190818152602001828054801561309757602002820191906000526020600020905b815481526020019060010190808311613083575b50505091835250503060208201524260409182015260025490517fe324a3e40000000000000000000000000000000000000000000000000000000081529192506001600160a01b03169063e324a3e4906130f590849060040161415a565b6000604051808303816000875af1158015613114573d6000803e3d6000fd5b505050506040513d6000823e601f3d908101601f1916820160405261313c91908101906142cc565b90945092506000805b84518110156131b55784818151811061316057613160613fcc565b6020026020010151826131739190614039565b91506131a286828151811061318a5761318a613fcc565b6020026020010151600861399d90919063ffffffff16565b50806131ad81613ff8565b915050613145565b5060326131c26008611db3565b1061325b5760405162461bcd60e51b815260206004820152605060248201527f53747261746567793a20546f6f206d616e792062696e7320616674657220616460448201527f643b206d616e6167657220636865636b2062696e20736c69707061676520616e60648201527f642063616c6c20726562616c616e636500000000000000000000000000000000608482015260a4016106ea565b60408051338152602081018b9052908101899052606081018290527fbeb3885786d637a474cbc287c0a44587231633a077f0bd30354d5a4b18996fce9060800160405180910390a150505094509492505050565b6000613304826040518060400160405280602081526020017f5361666545524332303a206c6f772d6c6576656c2063616c6c206661696c6564815250856001600160a01b0316611d4a9092919063ffffffff16565b805190915015611baf5780806020019051810190613322919061404c565b611baf5760405162461bcd60e51b815260206004820152602a60248201527f5361666545524332303a204552433230206f7065726174696f6e20646964206e60448201527f6f7420737563636565640000000000000000000000000000000000000000000060648201526084016106ea565b60608247101561340c5760405162461bcd60e51b815260206004820152602660248201527f416464726573733a20696e73756666696369656e742062616c616e636520666f60448201527f722063616c6c000000000000000000000000000000000000000000000000000060648201526084016106ea565b600080866001600160a01b031685876040516134289190614354565b60006040518083038185875af1925050503d8060008114613465576040519150601f19603f3d011682016040523d82523d6000602084013e61346a565b606091505b509150915061347b878383876139a9565b979650505050505050565b600054600160a01b900460ff1661083b5760405162461bcd60e51b815260206004820152601460248201527f5061757361626c653a206e6f742070617573656400000000000000000000000060448201526064016106ea565b6000806000806134ed611346565b9150915060006134fb61125e565b6040517f225b20b90000000000000000000000000000000000000000000000000000000081529091506001600160a01b037f0000000000000000000000000000000000000000000000000000000000000000169063225b20b9906135659030908590600401613f86565b60408051808303816000875af1158015613583573d6000803e3d6000fd5b505050506040513d601f19601f820116820180604052508101906135a79190613fa8565b90955093506000806135b7611346565b60035460408051918252602082018990528101879052606081018390526080810182905291935091507fd9e37493c971e3a52b9a6a43c700f1b92f6579e50559027a4991d83b580183d39060a00160405180910390a150505050509091565b8062ffffff81168114613658576040517f76949f3c000000000000000000000000000000000000000000000000000000008152600481018390526024016106ea565b919050565b600080600061366c8686613a22565b9150915061367d8686868585613a41565b9695505050505050565b60006127a08383613b10565b60008260000182815481106136aa576136aa613fcc565b9060005260206000200154905092915050565b600054600160a01b900460ff161561083b5760405162461bcd60e51b815260206004820152601060248201527f5061757361626c653a207061757365640000000000000000000000000000000060448201526064016106ea565b6040805160028082526060820183526000928392919060208301908036833701905050905082156137ef577f00000000000000000000000000000000000000000000000000000000000000008160008151811061377657613776613fcc565b60200260200101906001600160a01b031690816001600160a01b0316815250507f0000000000000000000000000000000000000000000000000000000000000000816001815181106137ca576137ca613fcc565b60200260200101906001600160a01b031690816001600160a01b031681525050613898565b7f00000000000000000000000000000000000000000000000000000000000000008160008151811061382357613823613fcc565b60200260200101906001600160a01b031690816001600160a01b0316815250507f00000000000000000000000000000000000000000000000000000000000000008160018151811061387757613877613fcc565b60200260200101906001600160a01b031690816001600160a01b0316815250505b604080516001808252818301909252600091602080830190803683370190505090507f000000000000000000000000000000000000000000000000000000000000000061ffff16816000815181106138f2576138f2613fcc565b60209081029190910101526002546040517f6d0ff4950000000000000000000000000000000000000000000000000000000081526001600160a01b0390911690636d0ff495906139519088906000908690889030904290600401614370565b6020604051808303816000875af1158015613970573d6000803e3d6000fd5b505050506040513d601f19601f820116820180604052508101906139949190613f6d565b95945050505050565b60006127a08383613c03565b60608315613a18578251600003613a11576001600160a01b0385163b613a115760405162461bcd60e51b815260206004820152601d60248201527f416464726573733a2063616c6c20746f206e6f6e2d636f6e747261637400000060448201526064016106ea565b5081610b2e565b610b2e8383613c52565b6000806000198385098385029250828110838203039150509250929050565b600081600003613a6257838381613a5a57613a5a614085565b049050613994565b838210613aa5576040517fcad6a85600000000000000000000000000000000000000000000000000000000815260048101839052602481018590526044016106ea565b600084868809600186198101871660008190038190049091018683119095039490940294038390049390931760029290940460038102831880820284030280820284030280820284030280820284030280820284030290810290920390910292909202949350505050565b60008181526001830160205260408120548015613bf9576000613b346001836143ee565b8554909150600090613b48906001906143ee565b9050818114613bad576000866000018281548110613b6857613b68613fcc565b9060005260206000200154905080876000018481548110613b8b57613b8b613fcc565b6000918252602080832090910192909255918252600188019052604090208390555b8554869080613bbe57613bbe614401565b60019003818190600052602060002001600090559055856001016000868152602001908152602001600020600090556001935050505061068a565b600091505061068a565b6000818152600183016020526040812054613c4a5750815460018181018455600084815260208082209093018490558454848252828601909352604090209190915561068a565b50600061068a565b815115613c625781518083602001fd5b8060405162461bcd60e51b81526004016106ea9190614417565b828054828255906000526020600020908101928215613cb7579160200282015b82811115613cb7578251825591602001919060010190613c9c565b506116be9291505b808211156116be5760008155600101613cbf565b600060208284031215613ce557600080fd5b81356001600160e01b0319811681146127a057600080fd5b600060208284031215613d0f57600080fd5b81356001600160a01b03811681146127a057600080fd5b600060208284031215613d3857600080fd5b5035919050565b634e487b7160e01b600052604160045260246000fd5b604051601f8201601f1916810167ffffffffffffffff81118282101715613d7e57613d7e613d3f565b604052919050565b600067ffffffffffffffff821115613da057613da0613d3f565b5060051b60200190565b600082601f830112613dbb57600080fd5b81356020613dd0613dcb83613d86565b613d55565b82815260059290921b84018101918181019086841115613def57600080fd5b8286015b84811015613e0a5780358352918301918301613df3565b509695505050505050565b600060208284031215613e2757600080fd5b813567ffffffffffffffff811115613e3e57600080fd5b610b2e84828501613daa565b60008060408385031215613e5d57600080fd5b823567ffffffffffffffff811115613e7457600080fd5b613e8085828601613daa565b95602094909401359450505050565b60008060008060808587031215613ea557600080fd5b843567ffffffffffffffff80821115613ebd57600080fd5b613ec988838901613daa565b95506020870135915080821115613edf57600080fd5b613eeb88838901613daa565b94506040870135915080821115613f0157600080fd5b50613f0e87828801613daa565b949793965093946060013593505050565b600081518084526020808501945080840160005b83811015613f4f57815187529582019590820190600101613f33565b509495945050505050565b6020815260006127a06020830184613f1f565b600060208284031215613f7f57600080fd5b5051919050565b6001600160a01b0383168152604060208201526000610b2e6040830184613f1f565b60008060408385031215613fbb57600080fd5b505080516020909101519092909150565b634e487b7160e01b600052603260045260246000fd5b634e487b7160e01b600052601160045260246000fd5b60006001820161400a5761400a613fe2565b5060010190565b808201828112600083128015821682158216171561403157614031613fe2565b505092915050565b8082018082111561068a5761068a613fe2565b60006020828403121561405e57600080fd5b815180151581146127a057600080fd5b808202811582820484141761068a5761068a613fe2565b634e487b7160e01b600052601260045260246000fd5b6000826140b857634e487b7160e01b600052601260045260246000fd5b500490565b60006101206001600160a01b03808d168452808c16602085015261ffff8b1660408501528960608501528860808501528160a08501526140ff82850189613f1f565b915083820360c08501526141138288613f1f565b951660e084015250506101000152979650505050505050565b60008060006060848603121561414157600080fd5b8351925060208401519150604084015190509250925092565b602081526141746020820183516001600160a01b03169052565b6000602083015161419060408401826001600160a01b03169052565b506040830151606083015260608301516080830152608083015160a083015260a083015160c083015260c083015160e083015260e08301516101008181850152808501519150506101208181850152808501519150506101c061014081818601526141ff6101e0860184613f1f565b9250808601519050601f196101608187860301818801526142208584613f1f565b94508088015192505061018081878603018188015261423f8584613f1f565b945080880151925050506101a0614260818701836001600160a01b03169052565b959095015193019290925250919050565b600082601f83011261428257600080fd5b81516020614292613dcb83613d86565b82815260059290921b840181019181810190868411156142b157600080fd5b8286015b84811015613e0a57805183529183019183016142b5565b600080604083850312156142df57600080fd5b825167ffffffffffffffff808211156142f757600080fd5b61430386838701614271565b9350602085015191508082111561431957600080fd5b5061432685828601614271565b9150509250929050565b60005b8381101561434b578181015183820152602001614333565b50506000910152565b60008251614366818460208701614330565b9190910192915050565b86815260006020878184015260c0604084015261439060c0840188613f1f565b838103606085015286518082528288019183019060005b818110156143cc5783516001600160a01b0316835292840192918401916001016143a7565b50506001600160a01b0396909616608085015250505060a00152949350505050565b8181038181111561068a5761068a613fe2565b634e487b7160e01b600052603160045260246000fd5b6020815260008251806020840152614436816040850160208701614330565b601f01601f1916919091016040019291505056fea26469706673582212200e00323e1c674518ba5aafa8bbe61f580a39fe520a8dce2c3922ff5f9da230a264736f6c63430008110033",
  "devdoc": {
    "kind": "dev",
    "methods": {
      "binHasXLiquidity(int256[])": {
        "params": {
          "_deltaIds": "to check"
        },
        "returns": {
          "hasXLiquidity": "if tokenX is required as liquidity by strategy"
        }
      },
      "binHasYLiquidity(int256[])": {
        "params": {
          "_deltaIds": "to check"
        },
        "returns": {
          "hasYLiquidity": "if tokenY is required as liquidity by strategy"
        }
      },
      "checkProposedBinLength(int256[],uint256)": {
        "returns": {
          "_0": "numProposedIds number of proposed bin Ids"
        }
      },
      "earn()": {
        "returns": {
          "amountX": "amount of token X added as liquidity",
          "amountY": "amount of token Y added as liquidity"
        }
      },
      "executeRebalance()": {
        "returns": {
          "amountX": "total amountX supplied after the rebalance",
          "amountY": "total amountY supplied after the rebalance"
        }
      },
      "executeRebalance(int256[],uint256[],uint256[],uint256)": {
        "params": {
          "_deltaIds": "the distribution of liquidity around the active bin",
          "_distributionX": "the distribution of tokenX liquidity around the active bin",
          "_distributionY": "the distribution of tokenY liquidity around the active bin",
          "_idSlippage": "slippage of bins acceptable"
        },
        "returns": {
          "amountX": "total amountX supplied after the rebalance",
          "amountY": "total amountY supplied after the rebalance"
        }
      },
      "getActiveBinIds()": {
        "returns": {
          "activeBinIds": "array of active binIds"
        }
      },
      "getBalanceX()": {
        "returns": {
          "_0": "tokenXAmount amount of tokenX idle in the strat"
        }
      },
      "getBalanceY()": {
        "returns": {
          "_0": "tokenYAmount amount of tokenY idle in the strat"
        }
      },
      "getTotalAmounts()": {
        "returns": {
          "totalX": "managed by the strategy",
          "totalY": "managed by the strategy"
        }
      },
      "harvest()": {
        "returns": {
          "amountXReceived": "amount of tokenX received from harvest",
          "amountYReceived": "amount of tokenY received from harvest"
        }
      },
      "owner()": {
        "details": "Returns the address of the current owner."
      },
      "paused()": {
        "details": "Returns true if the contract is paused, and false otherwise."
      },
      "removeLiquidity(uint256)": {
        "params": {
          "denominator": "proportion of liquidity to remove"
        },
        "returns": {
          "amountX": "amount of tokenX removed from liquidity",
          "amountY": "amount of tokenY removed from liquidity"
        }
      },
      "renounceOwnership()": {
        "details": "Leaves the contract without owner. It will not be possible to call `onlyOwner` functions anymore. Can only be called by the current owner. NOTE: Renouncing ownership will leave the contract without an owner, thereby removing any functionality that is only available to the owner."
      },
      "rewardsAvailable(uint256[])": {
        "params": {
          "_increasingBinIds": "strictly increasing binIds to check rewards in"
        },
        "returns": {
          "rewardsX": "amount of rewards available of tokenX",
          "rewardsY": "amount of rewards available of tokenY"
        }
      },
      "setJoeRouter(address)": {
        "params": {
          "_joeRouter": "new joeRouter address."
        }
      },
      "setKeeper(address)": {
        "params": {
          "_keeper": "new keeper address."
        }
      },
      "strategyActiveBins()": {
        "returns": {
          "activeBins": "currently in use by the strategy"
        }
      },
      "strategyPositionAtIndex(uint256)": {
        "params": {
          "_index": "The position index"
        },
        "returns": {
          "_0": "The non-zero position at index `_index`"
        }
      },
      "strategyPositionNumber()": {
        "returns": {
          "_0": "The number of non-zero balances of strategy"
        }
      },
      "supportsInterface(bytes4)": {
        "params": {
          "_interfaceId": "The interface identifier"
        },
        "returns": {
          "_0": "Whether the interface is supported (true) or not (false)"
        }
      },
      "transferOwnership(address)": {
        "details": "Transfers ownership of the contract to a new account (`newOwner`). Can only be called by the current owner."
      }
    },
    "version": 1
  },
  "userdoc": {
    "errors": {
      "Math512Bits__MulDivOverflow(uint256,uint256)": [
        {
          "notice": "Math512Bits errors "
        }
      ]
    },
    "events": {
      "CollectRewards(uint256,uint256,uint256,uint256,uint256)": {
        "notice": "----------------------------------------------------------- Events -----------------------------------------------------------"
      },
      "SetKeeper(address)": {
        "notice": "----------------------------------------------------------- Events -----------------------------------------------------------"
      }
    },
    "kind": "user",
    "methods": {
      "beforeDeposit()": {
        "notice": "Function to synchronize balances before new user deposit. Can be overridden in the strategy."
      },
      "binHasXLiquidity(int256[])": {
        "notice": "checks if the deltaId's contain X liquidity"
      },
      "binHasYLiquidity(int256[])": {
        "notice": "checks if the deltaId's contain Y liquidity"
      },
      "checkProposedBinLength(int256[],uint256)": {
        "notice": "checks the proposed bin lengthhelps to ensure that we wont exceed the 50 bin limit in single call"
      },
      "constructor": {
        "notice": "----------------------------------------------------------- Constructor -----------------------------------------------------------"
      },
      "deltaIds(uint256)": {
        "notice": "parameters which may be changed by a strategist"
      },
      "earn()": {
        "notice": "puts any available tokenX or tokenY to work"
      },
      "executeRebalance()": {
        "notice": "point of call to execute a rebalance of the strategy with the same params"
      },
      "executeRebalance(int256[],uint256[],uint256[],uint256)": {
        "notice": "point of call to execute a rebalance of the strategy with new params"
      },
      "getActiveBinIds()": {
        "notice": "get the active bins that the strategy currently holds liquidity in."
      },
      "getBalanceX()": {
        "notice": "Balance of tokenX in strategy not used in any position."
      },
      "getBalanceY()": {
        "notice": "Balance of tokenY in strategy not used in any position."
      },
      "getTotalAmounts()": {
        "notice": "Calculates the vault's total holdings of tokenX and tokenY - in other words, how much of each token the vault would hold if it withdrew all its liquidity from Trader Joe Dex V2."
      },
      "harvest()": {
        "notice": "harvest the rewards from the strategy"
      },
      "panic()": {
        "notice": "pauses deposits and withdraws all funds from third party systems."
      },
      "pause()": {
        "notice": "pauses deposits and removes allowances"
      },
      "removeLiquidity(uint256)": {
        "notice": "entrypoint for the vault to remove liquidity from the strategy"
      },
      "removeTokens(address)": {
        "notice": "allows removal of tokens if necessary"
      },
      "retireStrat()": {
        "notice": "called as part of strat migration. Sends all the available funds back to the vault."
      },
      "rewardsAvailable(uint256[])": {
        "notice": "checks if there is rewards ready to be harvested from the pair"
      },
      "setJoeRouter(address)": {
        "notice": "Updates router that will be used for swaps."
      },
      "setKeeper(address)": {
        "notice": "Updates address of the strat keeper."
      },
      "strategyActiveBins()": {
        "notice": "returns all of the active bin Ids in the strategy"
      },
      "strategyPositionAtIndex(uint256)": {
        "notice": "Returns the type id at index `_index` where strategy has a non-zero balance"
      },
      "strategyPositionNumber()": {
        "notice": "Returns the number of non-zero balances of strategy"
      },
      "supportsInterface(bytes4)": {
        "notice": "Returns whether this contract implements the interface defined by `interfaceId` (true) or not (false)"
      },
      "tokenX()": {
        "notice": "parameters which should not be changed after init"
      },
      "unpause()": {
        "notice": "allows deposits into third part systems"
      }
    },
    "notice": "used in conjunction with a vault to manage TraderJoe Liquidity Book Positions",
    "version": 1
  },
  "storageLayout": {
    "storage": [
      {
        "astId": 65,
        "contract": "contracts/strategy/LBStrategy.sol:StrategyTJLiquidityBookLB",
        "label": "_owner",
        "offset": 0,
        "slot": "0",
        "type": "t_address"
      },
      {
        "astId": 188,
        "contract": "contracts/strategy/LBStrategy.sol:StrategyTJLiquidityBookLB",
        "label": "_paused",
        "offset": 20,
        "slot": "0",
        "type": "t_bool"
      },
      {
        "astId": 8234,
        "contract": "contracts/strategy/LBStrategy.sol:StrategyTJLiquidityBookLB",
        "label": "keeper",
        "offset": 0,
        "slot": "1",
        "type": "t_address"
      },
      {
        "astId": 8236,
        "contract": "contracts/strategy/LBStrategy.sol:StrategyTJLiquidityBookLB",
        "label": "joeRouter",
        "offset": 0,
        "slot": "2",
        "type": "t_address"
      },
      {
        "astId": 8692,
        "contract": "contracts/strategy/LBStrategy.sol:StrategyTJLiquidityBookLB",
        "label": "lastHarvest",
        "offset": 0,
        "slot": "3",
        "type": "t_uint256"
      },
      {
        "astId": 8711,
        "contract": "contracts/strategy/LBStrategy.sol:StrategyTJLiquidityBookLB",
        "label": "deltaIds",
        "offset": 0,
        "slot": "4",
        "type": "t_array(t_int256)dyn_storage"
      },
      {
        "astId": 8714,
        "contract": "contracts/strategy/LBStrategy.sol:StrategyTJLiquidityBookLB",
        "label": "distributionX",
        "offset": 0,
        "slot": "5",
        "type": "t_array(t_uint256)dyn_storage"
      },
      {
        "astId": 8717,
        "contract": "contracts/strategy/LBStrategy.sol:StrategyTJLiquidityBookLB",
        "label": "distributionY",
        "offset": 0,
        "slot": "6",
        "type": "t_array(t_uint256)dyn_storage"
      },
      {
        "astId": 8719,
        "contract": "contracts/strategy/LBStrategy.sol:StrategyTJLiquidityBookLB",
        "label": "idSlippage",
        "offset": 0,
        "slot": "7",
        "type": "t_uint256"
      },
      {
        "astId": 8723,
        "contract": "contracts/strategy/LBStrategy.sol:StrategyTJLiquidityBookLB",
        "label": "_activeBins",
        "offset": 0,
        "slot": "8",
        "type": "t_struct(UintSet)3051_storage"
      }
    ],
    "types": {
      "t_address": {
        "encoding": "inplace",
        "label": "address",
        "numberOfBytes": "20"
      },
      "t_array(t_bytes32)dyn_storage": {
        "base": "t_bytes32",
        "encoding": "dynamic_array",
        "label": "bytes32[]",
        "numberOfBytes": "32"
      },
      "t_array(t_int256)dyn_storage": {
        "base": "t_int256",
        "encoding": "dynamic_array",
        "label": "int256[]",
        "numberOfBytes": "32"
      },
      "t_array(t_uint256)dyn_storage": {
        "base": "t_uint256",
        "encoding": "dynamic_array",
        "label": "uint256[]",
        "numberOfBytes": "32"
      },
      "t_bool": {
        "encoding": "inplace",
        "label": "bool",
        "numberOfBytes": "1"
      },
      "t_bytes32": {
        "encoding": "inplace",
        "label": "bytes32",
        "numberOfBytes": "32"
      },
      "t_int256": {
        "encoding": "inplace",
        "label": "int256",
        "numberOfBytes": "32"
      },
      "t_mapping(t_bytes32,t_uint256)": {
        "encoding": "mapping",
        "key": "t_bytes32",
        "label": "mapping(bytes32 => uint256)",
        "numberOfBytes": "32",
        "value": "t_uint256"
      },
      "t_struct(Set)2579_storage": {
        "encoding": "inplace",
        "label": "struct EnumerableSet.Set",
        "members": [
          {
            "astId": 2574,
            "contract": "contracts/strategy/LBStrategy.sol:StrategyTJLiquidityBookLB",
            "label": "_values",
            "offset": 0,
            "slot": "0",
            "type": "t_array(t_bytes32)dyn_storage"
          },
          {
            "astId": 2578,
            "contract": "contracts/strategy/LBStrategy.sol:StrategyTJLiquidityBookLB",
            "label": "_indexes",
            "offset": 0,
            "slot": "1",
            "type": "t_mapping(t_bytes32,t_uint256)"
          }
        ],
        "numberOfBytes": "64"
      },
      "t_struct(UintSet)3051_storage": {
        "encoding": "inplace",
        "label": "struct EnumerableSet.UintSet",
        "members": [
          {
            "astId": 3050,
            "contract": "contracts/strategy/LBStrategy.sol:StrategyTJLiquidityBookLB",
            "label": "_inner",
            "offset": 0,
            "slot": "0",
            "type": "t_struct(Set)2579_storage"
          }
        ],
        "numberOfBytes": "64"
      },
      "t_uint256": {
        "encoding": "inplace",
        "label": "uint256",
        "numberOfBytes": "32"
      }
    }
  }
}